:1000000007C100000C94BF330C94EA330C941534F0
:100010000C9440340C946B340C9496340C94C1348E
:100020000C94EC3426C1000024C1000022C1000061
:1000300020C100001EC100001CC100001AC1000048
:1000400018C1000016C1000014C1000012C1000058
:1000500010C100000EC100000CC100000C94173547
:1000600008C100000C94F6380C942C3902C1000031
:1000700000C10000FEC00000FCC00000FAC000008B
:10008000F8C00000F6C00000F4C00000F2C000009C
:100090000C9482390C94B839ECC000003BC40000C9
:1000A000E8C00000E6C00000E4C00000E2C00000BC
:1000B000E0C00000DEC00000DCC00000DAC00000CC
:1000C000D8C00000D6C000000C94032F0C940E3A48
:1000D0000C94443ACEC000000C949A3A0C94D03A56
:1000E000C8C0000000000A0B02090C0D0E0807032F
:1000F00004010000000000000000000000000000FB
:1001000000000000000000000000000000000000EF
:1001100012111000000000000000000000000000AC
:100120000000000000000000000001021020200874
:100130000810204010204080020102010804020142
:1001400001020408102040808040201008040201B1
:10015000800402018040201008040201080402010A
:100160000102040810204080010204081020408091
:1001700005050505070508080808020202020A0A23
:100180000808040404040101010101010101030341
:10019000030303030303040707070C0C0C0C0C0CEC
:1001A0000C0C0202020206060606060606060B0BE9
:1001B0000B0B0B0B0B0B000020002300260029006B
:1001C0002C002F003200000100000301060109018C
:1001D00000002200250028002B002E0031003400F2
:1001E00002010000050108010B01000021002400AC
:1001F00027002A002D003000330001010000040117
:1002000007010A01CA02D6035539E1396D3AF93AB4
:1002100011241FBECFEFD1E2DEBFCDBF00E00CBF87
:1002200013E0A0E0B2E0E8E9F7E700E00BBF02C0AE
:1002300007900D92A633B107D9F72AE0A6E3B3E001
:1002400001C01D92AA3CB207E1F711E0C8E0D1E07D
:1002500000E006C021970109802FFE010E94993B12
:10026000C230D10780E00807A9F70E9455300C94EE
:10027000CA3BC6CEFC01A781B0858C9191858923AC
:10028000A481B5819C9140815181628173812681D5
:10029000922359F081110BC04F5F5F4F6F4F7F4F1B
:1002A000408351836283738308958111F5CF415058
:1002B000510961097109F4CF87E393E0DBCF82E450
:1002C00093E0D8CF8DE493E0D5CF88E593E0D2CF0B
:1002D000FC01A481B5818C9196818923A781B08589
:1002E0009C9140815181628173812185922359F0D3
:1002F000882359F04F5F5F4F6F4F7F4F408351838B
:100300006283738308958823A9F3415051096109D9
:100310007109F4CF87E393E0DBCF82E493E0D8CF99
:100320008DE493E0D5CF88E593E0D2CF0F931F9370
:10033000CF93DF93D82FC62F8A01A09136038BE08D
:10034000A89FD0011124A95CBC4F1D921D921D9243
:100350001C92139781E01A968C931A978D2F90E038
:10036000FC01E65DFE4FE4911696EC931697FC01B6
:10037000E059FE4FE491F0E0EE0FFF1FEA54FE4F0C
:100380008591949115969C938E931497862F90E067
:10039000FC01E65DFE4FE4911996EC931997FC0180
:1003A000E059FE4FE491F0E0EE0FFF1FEA54FE4FDC
:1003B0008591949118969C938E93179760E08D2F5A
:1003C0000E94633760E08C2F0E9463378091360370
:1003D000813009F43FC0A8F0823009F462C0833054
:1003E00009F486C08091360391E0980F909336030C
:1003F000F801808390E080E0DF91CF911F910F9111
:10040000089580E0D23049F081E0D33031F08EEEB3
:100410008D0F8430D8F487E18D1B41E050E06CE50E
:1004200071E00E94453380E0C23049F081E0C33082
:1004300031F08EEE8C0F843058F487E18C1B41E054
:1004400050E06AE871E00E944533CCCF8FEFE5CFF2
:100450008FEFF5CF80E0D23049F081E0D33031F03A
:100460008EEE8D0F8430C8F487E18D1B41E050E0A3
:100470006FE571E00E94453380E0C23049F081E0D1
:10048000C33031F08EEE8C0F843048F487E18C1B42
:1004900041E050E06DE871E0D6CF8FEFE7CF8FEF0E
:1004A000F7CF80E0D23049F081E0D33031F08EEEEA
:1004B0008D0F8430C8F487E18D1B41E050E062E687
:1004C00071E00E94453380E0C23049F081E0C330E2
:1004D00031F08EEE8C0F843048F487E18C1B41E0C4
:1004E00050E060E971E0AFCF8FEFE7CF8FEFF7CF4C
:1004F00080E0D23049F081E0D33031F08EEE8D0FC4
:100500008430C8F487E18D1B41E050E065E671E07E
:100510000E94453380E0C23049F081E0C33031F0C1
:100520008EEE8C0F843048F487E18C1B41E050E064
:1005300063E971E088CF8FEFE7CF8FEFF7CF9BE0D4
:10054000899FF0011124E95CFC4F80819181A28197
:10055000B381FB0180839183A283B38390E080E029
:1005600008959BE0899FF0011124E95CFC4F108203
:1005700011821282138290E080E0089590E080E082
:10058000089583E693E010C09A01AB01BC0183E6B5
:1005900093E049C083E693E000C0FC011082118221
:1005A000128213821482089561E088E00E9463370A
:1005B00061E084E00E94633761E08CE00E94633771
:1005C00061E087E00E94633761E08BE00E9463375F
:1005D00060E087E00C949F37CF93DF93D62F60E0E5
:1005E0008CE00E949F37C8E061E0D7FF60E088E0C0
:1005F0000E949F37DD0F61E084E00E949F3781E019
:1006000090E00E94BC3560E084E00E949F3781E06A
:1006100090E00E94BC35C15039F761E08CE0DF9179
:10062000CF910C949F37CF92DF92EF92FF92CF93AE
:10063000DF93EC016A017B0120E030E0A901CB01EE
:10064000B6010E9499321816E4F484E08C8364E0C9
:10065000CE01C2DF20E030E040E752E4C701B6013E
:100660000E94E6300E94B631688379838A839B8337
:100670008BE0DF91CF91FF90EF90DF90CF900C94C3
:10068000293688E08C8368E0CE01A6DFA7019601B9
:1006900060E070E080E792E40E94E530E3CF90E014
:1006A00080E008958091970390919803891B990B9E
:1006B000089590919803809197032FEF3FEF98173B
:1006C00048F4E92FF0E0E756FC4F208130E09F5FCF
:1006D00090939803C9010895E0919803809197033E
:1006E000E81730F4F0E0E756FC4F808190E0089581
:1006F0008FEF9FEF08950895CF93DF931F92CDB7AB
:10070000DEB76983209174032223F9F020917503E9
:10071000203258F021E030E0FC013383228390E066
:1007200080E00F90DF91CF91089580917603E82FBC
:10073000F0E0E958FC4F998190838F5F80937603B6
:100740008093750381E090E0ECCF61E0CE010196EB
:1007500069D0F8CFCF92DF92EF92FF920F931F9361
:10076000CF93DF937C01CB018A0120917403222374
:1007700089F0EB016B01C40ED51ECC15DD0561F0CF
:100780006991D701ED91FC910190F081E02DC701B5
:100790001995F3CF642F46D0C801DF91CF911F91F7
:1007A0000F91FF90EF90DF90CF900895E8E6F3E08F
:1007B0001382128288EE93E0A0E0B0E084839583F8
:1007C000A683B78389E892E091838083089510928D
:1007D0002C0481E080932A041092290461E084E1D2
:1007E0000E949F3761E085E10E949F37E9EBF0E0CE
:1007F00080818E7F808380818D7F808388E4809359
:10080000B80085E48093BC000895ECEBF0E08081B3
:100810008A7B808360E084E10E949F3760E085E10D
:100820000C949F372091DB03260F3327331F21328F
:100830003105ECF420912C04FC0190E080E02430A0
:1008400069F082E00895A091DB032191AC0143524D
:100850005C4FA40FB52FB11D2C930196861798F30A
:100860008091DB03680F6093DB0380E0089581E0F3
:10087000089585EC8093BC0010922C040895CF93CA
:10088000DF9391E090932404882351F0C091B80045
:10089000D091BA00BADF9BDFD093BA00C093B80002
:1008A000DF91CF91089585ED8093BC008091250460
:1008B00090912604A0912704B09128040796A11DC9
:1008C000B11D23E0B695A795979587952A95D1F701
:1008D0002091BC0024FD03C010922C040895409187
:1008E0002504509126046091270470912804452B1B
:1008F000462B472B69F30097A105B10541F025E38D
:100900002A95F1F700000197A109B109E1CF809183
:100910002304B5CF1F920F920FB60F9211240BB67E
:100920000F922F933F934F935F936F937F938F9388
:100930009F93AF93BF93EF93FF938091B900887F0C
:10094000803609F44CC008F03FC0883209F4A8C0D2
:1009500028F5803109F49CC0C8F4882309F4F8C054
:10096000883009F495C0FF91EF91BF91AF919F91AD
:100970008F917F916F915F914F913F912F910F9048
:100980000BBE0F900FBE0F901F901895883109F481
:1009900087C0803241F78093B90314C0803409F4D2
:1009A0009CC040F48033B9F38833E9F68093B903EF
:1009B00060DFD9CF803509F484C0883509F495C04B
:1009C000883489F670DFCFCF883909F48CC038F5C8
:1009D000883729F050F4883611F0803721F683E00B
:1009E00080932C041092BA0357C0883809F47BC056
:1009F000803919F0803809F0B6CF8091BA0380327F
:100A000008F071C0E091BA0381E08E0F8093BA03C1
:100A10008091BB00F0E0E554FC4F80833DC0803BFB
:100A200039F0E0F4803A09F479C0883A09F09BCFB4
:100A300084E080932C041092DC031092DB03E0919D
:100A40002104F091220419958091DB0381110FC0DC
:100A500081E08093DB031092DD0309C0803C09F440
:100A600075C0883C09F472C0883B09F07CCFE091E6
:100A7000DC0381E08E0F8093DC03F0E0E352FC4F57
:100A800080818093BB009091DC038091DB0329C0BF
:100A900080912B048093BB0085EC8093BC0063CFD6
:100AA0009091FE038091FD03981758F5E091FE03A5
:100AB00081E08E0F8093FE03F0E0E150FC4F8081D7
:100AC000E9CFE091FE0381E08E0F8093FE038091D9
:100AD000BB00F0E0E150FC4F80839091FE038091D9
:100AE000FD039817C8F285E8D8CFE091FE0381E0B6
:100AF0008E0F8093FE038091BB00F0E0E150FC4F2D
:100B0000808380912A0481115DCF81E08093290444
:100B100084EA8093BC0010922C0425CFAADE809139
:100B2000BA03803230F4E091BA03F0E0E554FC4FB0
:100B300010826091BA0370E0E0911F04F0912004EC
:100B40008BEB93E019951092BA030DCF85ECE1CFB2
:100B50001092B90337CF90E080E008950F931F9370
:100B6000009709F48AC06115710509F486C00091E7
:100B70004C0210914D0220914E0230914F020E3FD7
:100B80001F4F2F4F3F4F09F06AC0DB014D915D9120
:100B90006D917C9140934C0250934D0260934E02B4
:100BA00070934F0240914C0250914D0260914E0261
:100BB00070914F02DC011296ED91FC918081918140
:100BC000A281B3818093840590938505A0938605C7
:100BD000B093870584819581A681B7818093800534
:100BE00090938105A0938205B093830580859185BC
:100BF000A285B38580937C0590937D05A0937E05A7
:100C0000B0937F0584859585A685B7858093780503
:100C100090937905A0937A05B0937B0510927405A3
:100C20001092750510927605109277050E94A71212
:100C30008CEC92E190932E0480932D0490933004D9
:100C400080932F040E949611009731F421E030E048
:100C500030938905209388051F910F910895009185
:100C60004C0210914D0220914E0230914F02FB0137
:100C7000008311832283338395CF8FEF9FEFECCFD7
:100C80008F929F92AF92BF92CF92DF92EF92FF929C
:100C90001F93CF93DF934B015C0110918B0582E092
:100CA00090E0909389058093880581149104A104B4
:100CB000B10441F480918B05811104C080918A05B3
:100CC000C1E08111C0E0C12CD12C760180918B054F
:100CD000811106C080918A05811102C0CC23D9F010
:100CE00083E090E09093890580938805CC2381F17F
:100CF000CCE9DFEF111102C00E943116CE01DF9165
:100D0000CF911F91FF90EF90DF90CF90BF90AF9069
:100D10009F908F9008956AE070E080E090E00E94DC
:100D2000863580E1C80E87E2D81EE11CF11C8FEFEA
:100D300088169806A806B80631F0C1E08C149D0408
:100D4000AE04BF0408F0C0E080E00E94CA11BECF2C
:100D5000D0E0C0E0CFCFCF92DF92EF92FF920F931F
:100D60001F93CF93DF938F3F910511F008F051C08F
:100D700020918805309189052330310539F0209183
:100D80008805309189052130310531F424E030E0C7
:100D900030938905209388056A017B01EC0182303C
:100DA0009105A8F011E0AE01C701B6010E949511AE
:100DB000AB01BC01CE011123F9F0DF91CF911F915E
:100DC0000F91FF90EF90DF90CF900C9456188C010C
:100DD000000F111F035D1B4FD8018D919C91892B32
:100DE00009F30E9460180297E9F6D801ED91FC9191
:100DF000CE011995182FD7CF0E94781890E080E087
:100E0000DF91CF911F910F91FF90EF90DF90CF90E6
:100E100008958FEF9FEFF4CF80E00C94CA11CF9329
:100E2000DF9386E090E090938905809388050E9487
:100E30002312EC01EDE2F4E084E0DF011D928A95DB
:100E4000E9F70E94C9151092890510928805CE0114
:100E5000DF91CF91089580918A050895809173055F
:100E6000089560934C0270934D0280934E029093CC
:100E70004F0290E080E008952F923F924F925F9250
:100E80006F927F928F929F92AF92BF92CF92DF929A
:100E9000EF92FF920F931F93CF93DF9300D01F9297
:100EA000CDB7DEB78B015C834B83FB01E150F04C87
:100EB000EE0FFF1FEE0FFF1FE80FF91F408151815A
:100EC0006281738177FD27C04C01B12CA12CC12C0C
:100ED000D12C7601A016B10664F5F40161917191EF
:100EE000819191914F010E94E7314B815C810E9479
:100EF0009F329B01AC01C701B6010E94E6306B0135
:100F00007C012B813C81205E3F4F3C832B833FEF54
:100F1000A31AB30ADFCF9A838983312C212C81E075
:100F200090E0A0E0B0E0C12CD12C76012016310673
:100F3000CCF0C701B6010F900F900F900F90DF918A
:100F4000CF911F910F91FF90EF90DF90CF90BF90C6
:100F5000AF909F908F907F906F905F904F903F9059
:100F60002F900895E981FA8141905190619071909C
:100F7000FA83E98340945094609470945301420141
:100F8000880E991EAA1EBB1EC501B4010E94E7313E
:100F90004B815C810E949F329B01AC01C701B6016D
:100FA0000E94E5306B017C0181E084149504A60465
:100FB000B70408F080E090E0B0E0A0E02B813C8135
:100FC000205E3F4F3C832B833FEF231A330AAECF83
:100FD0002F923F924F925F926F927F928F929F9249
:100FE000AF92BF92CF92DF92EF92FF920F931F9337
:100FF000CF93DF93CDB7DEB7CB54D1090FB6F894BA
:10100000DEBF0FBECDBF26967FAF6EAF2697289668
:101010005FAF4EAF28973E8B2D8B2C96FFAEEEAE7A
:101020002C97FB01E150F04CEE0FFF1FEE0FFF1F5E
:10103000E80FF91F80809180A280B3808F8A988EFC
:10104000A98EBA8EB501A401442777FD4395552793
:101050006627772729964FAF2997F901E150F04C81
:10106000EE0FFF1FEE0FFF1F2896AEACBFAC289708
:10107000EA0DFB1DC080D180E280F380CB8EDC8E38
:10108000ED8EFE8EB701A601442777FD43955527C7
:10109000662777272A964FAF2A97188B0F87F80174
:1010A00030E020E02C96EEACFFAC2C972E153F05DF
:1010B0000CF43FC022969FAF8EAF22971A8B098BFC
:1010C000312C212C812C912C540183948D829E8271
:1010D000AF82B88626968EAC9FAC2697281439042A
:1010E0007CF129969FAC29972A96AFAC2A9730E0DD
:1010F00020E041E050E060E070E09A10F5C1C55B8F
:10110000DF4F0FB6F894DEBF0FBECDBFDF91CF919A
:101110001F910F91FF90EF90DF90CF90BF90AF9015
:101120009F908F907F906F905F904F903F902F9007
:10113000089511921192119211922F5F3F4FB2CFE9
:101140002296EEADFFAD229781919191A191B1913F
:101150002296FFAFEEAF22978F88988CA98CBA8C1D
:10116000B7FE23C04D815E816F8178854150510962
:10117000610971095A016B01A81AB90ACA0ADB0A86
:10118000D601C50121E0CD80DE80EF80F8848C158A
:101190009D05AE05BF0508F020E0822E912CB12CF4
:1011A000A12C8D829E82AF82B8865D01CC24DD2485
:1011B000A8A2B9A2CAA2DBA29C01AD01442755276F
:1011C0002CA33DA34EA35FA32C96EEADFFAD2C97B1
:1011D000E219F3098D889E888E169F060CF4F4019F
:1011E0002896AEACBFAC28972496BFAEAEAE24977F
:1011F000C988DA88DC8ACB8A1E861D86812C912CD0
:101200005401839489869A86AB86BC86812C912C66
:101210005401CD84DE84CE16DF0604F1F7FF02C050
:10122000F0E0E0E0E20DF31D2C96EEACFFAC2C9765
:10123000EE15FF0554F4EE0FFF1FEE0FFF1FE00F3A
:10124000F11F80829182A282B3822FEF221A320A8A
:10125000E989FA893496FA8BE98B3CCF2496AEADB6
:10126000BFAD2497CD90DD90ED90FD902496BFAF5B
:10127000AEAF24972B8D3C8D4D8D5E8D57FF22C0D8
:1012800089859A85AB85BC850197A109B109AC0117
:10129000BD014C195D096E097F096A017B0181E07E
:1012A00029853A854B855C85C216D306E406F5068A
:1012B00008F080E0482F50E070E060E049875A87EE
:1012C0006B877C87B7018827992768A779A78AA7A2
:1012D0009BA7EE24FF2428A139A14AA15BA1C70145
:1012E000B6010E94543B2B013C012CA13DA14EA113
:1012F0005FA168A579A58AA59BA50E94543B6CA710
:101300007DA78EA79FA7AB89BC894D915D916D91FB
:101310007D91BC8BAB8BDB01CA01880D991DAA1D89
:10132000BB1D89839A83AB83BC8391E09F8F298106
:101330003A814B815C81281539054A055B0508F027
:101340001F8E2CA13DA14EA15FA1C701B6010E9435
:10135000543B6B017C0189809A80AB80BC808C0CF3
:101360009D1CAE1CBF1C89829A82AB82BC8252013A
:101370009924882488AA99AAAAAABBAA29813A8171
:101380004B815C81280D391D4A1D5B1D2CAB3DAB8B
:101390004EAB5FAB8CA49DA4AEA4BFA45401992412
:1013A000882488AE99AEAAAEBBAE280D391D4A1D61
:1013B0005B1D2CAF3DAF4EAF5FAFAB89BC891497BF
:1013C0002D933D934D935C93139728A139A14AA186
:1013D0005BA168A579A58AA59BA50E94543B9F8C1B
:1013E000690D711D811D911D230166247724460E10
:1013F000571E681E791E2CA53DA54EA55FA54A0166
:10140000AA24BB24840C951CA61CB71C81E090E088
:10141000A0E0B0E049815A816B817C814C155D056B
:101420006E057F0518F080E090E0DC01880D991DC5
:10143000AA1DBB1D41E050E060E070E088A899A8BB
:10144000AAA8BBA8CCA8DDA8EEA8FFA8C814D904F8
:10145000EA04FB0418F040E050E0BA01840F951F45
:10146000A61FB71F812C912C54018394C8ACD9AC12
:10147000EAACFBAC2CAD3DAD4EAD5FAD2C153D05E2
:101480004E055F0518F0812C912C5401880E991E91
:10149000AA1EBB1E4D855E854F5F5F4F5E874D87E1
:1014A000B8CEEF85F889C190D190E190F190F88B9A
:1014B000EF87DB01CA010197A109B1098C199D09C8
:1014C000AE09BF09349780839183A283B383E1E09F
:1014D00084179507A607B70708F0E0E04E2F50E005
:1014E00070E060E02F5F3F4F2C968EAC9FAC2C9746
:1014F00028153905B4F203CEFC0191E020913B059B
:1015000030913C05232B09F090E092830895E091FF
:10151000D204F091D304A8EABAE058964D915D91B7
:101520006D917C915B974083518362837383549662
:101530004D915D916D917C9157974483558366835E
:10154000778318968D919D910D90BC91A02D8087E9
:101550009187A287B38708952F923F924F925F920F
:101560006F927F928F929F92AF92BF92CF92DF92B3
:10157000EF92FF920F931F93CF93DF93CDB7DEB718
:10158000EA970FB6F894DEBF0FBECDBF00914605B7
:10159000109147050130110509F0A4C36091290598
:1015A00070912A0580912B0590912C056F5F7F4FDC
:1015B0008F4F9F4F0E94E73120912D0530912E05CE
:1015C00040912F05509130050E94D332609353040F
:1015D00070935404809355049093560480913B0576
:1015E00090913C052091390530913A05232B31F437
:1015F00021E0009709F020E020933D050196843F0B
:1016000021E0920748F590933C0580933B0520919B
:10161000750A3091760A4091770A5091780A2093A2
:10162000A80A3093A90A4093AA0A5093AB0A809162
:101630003D05882341F180918F0A9091900AA091F5
:10164000910AB091920A8093AC0A9093AD0AA0934C
:10165000AE0AB093AF0A17C010923C0510923B053A
:101660002091750A3091760A4091770A5091780A54
:101670002093A80A3093A90A4093AA0A5093AB0A70
:1016800001301105A1F26091AC0A7091AD0A809110
:10169000AE0A9091AF0A0E94E5306B017C01209167
:1016A00000023091010240910202509103020E9417
:1016B000D33220917D0A30917E0A40917F0A509169
:1016C000800A0E94E5302091100230911102409171
:1016D0001202509113020E94D3324B015C0180929E
:1016E000B00A9092B10AA092B20AB092B30A2091C5
:1016F0001402309115024091160250911702C70151
:10170000B6010E94D3322091790A30917A0A409131
:101710007B0A50917C0A0E94E630A50194010E9448
:10172000E6306093B40A7093B50A8093B60A90933A
:10173000B70A20912002309121024091220250915B
:1017400023020E94D3326093B80A7093B90A80933F
:10175000BA0A9093BB0A40914002509141020E9404
:10176000C402A70196016091040270910502809164
:101770000602909107020E94D3326093BC0A7093D4
:10178000BD0A8093BE0A9093BF0A0130110509F08B
:1017900067C08091870A81111092870A64EC7AE011
:1017A0008091880A0E949F0280914802909149028C
:1017B000A0914A02B0914B028D879E87AF87B88B6C
:1017C0008091C40A9091C50AA091C60AB091C70A37
:1017D00040919D0A50919E0A60919F0A7091A00AC3
:1017E000841B950BA60BB70B89879A87AB87BC87A1
:1017F00082E0E82EF12C8E010F5F1F4F21E030E0D8
:10180000AE01475F5F4F61E070E0CE010D96E0DB17
:1018100050E040E062E070E0C8012EDB20E030E004
:1018200040E853E30E94D3322091240230912502F4
:1018300040912602509127020E944E3120912802A9
:101840003091290240912A0250912B020E94D332FA
:101850006093C00A7093C10A8093C20A9093C30A2E
:1018600080914605909147050197D9F48091C40A6B
:101870009091C50AA091C60AB091C70A80939D0AAB
:1018800090939E0AA0939F0AB093A00A40913105BD
:1018900050913205609133057091340581E090E0FC
:1018A0005ADA8091460590914705019709F001C2E7
:1018B000E0918304F09184040190F081E02D808117
:1018C0009181A281B3818BA39CA3ADA3BEA3809180
:1018D000530490915404A0915504B09156048FA7DD
:1018E00098ABA9ABBAABE0915704F0915804808053
:1018F0009180A280B380E0918704F0918804708089
:101900006180E0914B04F0914C0420803180528042
:1019100043801481058196819DA7A781AEA7E091A0
:101920004904F0914A04118210828CE0E72DF62DD3
:10193000D10101900D928A95E1F7E0918104F09137
:10194000820450824182E3DD20E030E040E05FE34A
:10195000C501B4010E94D3326B017C0138A62FA2CD
:1019600059A24AA27F8E68A2F1013C96FAA7E9A784
:10197000798A6A8A5B8A4C8A388E2F8AEF89F88D39
:1019800081919191A191B191F88FEF8B8B8F9C8F69
:10199000AD8FBE8FAB89BC892D913D914D915D91ED
:1019A000BC8BAB8BC701B6010E94D3322B8D3C8D13
:1019B0004D8D5E8D0E94E630E989FA8961937193BD
:1019C00081939193FA8BE98B29A53AA58F89988DFC
:1019D0002817390799F6E0918304F0918404A081D7
:1019E000B181BA8BA98BA70196016BA17CA18DA1B6
:1019F0009EA10E94E630E989FA896083718382831F
:101A00009383E0918104F091820410830183A4DD2B
:101A10007EDD20E030E0A901C501B4010E94D3328F
:101A20006BAB7CAB8DAB9EAB20E030E040E45FE382
:101A3000C501B4010E94D3326B017C01198B0A8B62
:101A4000072D162D29893A893C8F2B8F5B8A4C8A6A
:101A5000F10181919191A191B1911F0189A79AA75B
:101A6000ABA7BCA7AB89BC896D917D918D919D91F0
:101A7000BC8BAB8BEB8DFC8D419051906190719044
:101A8000FC8FEB8F2BA93CA94DA95EA90E94D332F4
:101A90006FAB78AF89AF9AAFA7019601C301B201CE
:101AA0000E94D3329B01AC016FA978AD89AD9AAD8C
:101AB0000E94E63029A53AA54BA55CA50E94E63018
:101AC000D8016D937D938D939D938D01EF89F88D52
:101AD000E215F30509F0BCCFE0918304F091840492
:101AE00000811181A70196016BA17CA18DA19EA10E
:101AF0000E94E630D8016D937D938D939C9313974C
:101B0000E0918104F0918204BDA5B0832EA52183CC
:101B100023DDFDDC29E33EE843E65EE3C501B401D5
:101B20000E94D3326F8B788F898F9A8F2BEA3AEA93
:101B30004AEA5EE3C501B4010E94D3326BA37CA3E1
:101B40008DA39EA329E33EE843EE5EE3C501B40105
:101B50000E94D3326B8F7C8F8D8F9E8F0DA51EA51B
:101B6000EFA1F8A581919191A191B191F8A7EFA36F
:101B70008B8B9C8BAD8BBE8BA9A1BAA16D917D91F6
:101B80008D919D91BAA3A9A3E989FA8941905190B9
:101B900061907190FA8BE98BD801CD90DD90ED903A
:101BA000FD908D012F89388D498D5A8D0E94D33239
:101BB0004B015C012BA13CA14DA15EA1C301B2016F
:101BC0000E94D3329B01AC01C501B4010E94E630F2
:101BD0004B015C012B8D3C8D4D8D5E8DC701B60197
:101BE0000E94D3329B01AC01C501B4010E94E630D2
:101BF0002B893C894D895E890E94E630EF8DF8A1E2
:101C00006193719381939193F8A3EF8F2FA138A5DE
:101C10002216330609F0A4CFE0918304F0918404E6
:101C20000190F081E02D8FA598A9A9A9BAA9808378
:101C30009183A283B383E0914904F0914A0481E047
:101C400090E0918380838091290590912A05A0914D
:101C50002B05B0912C050196A11DB11D809329057E
:101C600090932A05A0932B05B0932C0580915304E3
:101C700090915404A0915504B0915604E091490507
:101C8000F0914A0580839183A283B38380913105CB
:101C900090913205A0913305B09134050196A11DB4
:101CA000B11D8093310590933205A0933305B09315
:101CB0003405EA960FB6F894DEBF0FBECDBFDF91B4
:101CC000CF911F910F91FF90EF90DF90CF90BF9039
:101CD000AF909F908F907F906F905F904F903F90CC
:101CE0002F90089501151105A1F4E0918304F0915E
:101CF00084040190F081E02D80819181A281B381E3
:101D0000E0914905F0914A0580839183A283B383D2
:101D1000A7CC2091750A3091760A4091770A5091AC
:101D2000780A2093A80A3093A90A4093AA0A5093EC
:101D3000AB0AA9CC4F925F926F927F928F929F9243
:101D4000AF92BF92CF92DF92EF92FF92C090A10A22
:101D5000D090A20AE090A30AF090A40AC701B601AD
:101D60000E94E9312B013C01209138023091390267
:101D700040913A0250913B020E944A3187FF52C083
:101D8000F7FC50C08090300290903102A090320257
:101D9000B090330220E030E040E85FE3609134022D
:101DA0007091350280913602909137020E94E530A1
:101DB0009B01AC01C301B2010E94993287FD36C07C
:101DC0001092A10A1092A20A1092A30A1092A40AD9
:101DD000A501940160912C0270912D0280912E0238
:101DE00090912F020E94E63060938F0A7093900AC0
:101DF0008093910A9093920A8091350590913605CF
:101E000001969093360580933505FF90EF90DF9013
:101E1000CF90BF90AF909F908F907F906F905F908A
:101E20004F900895812C912C5401B4CF8FEFC81A94
:101E3000D80AE80AF80AC092A10AD092A20AE0924F
:101E4000A30AF092A40AC4CFCF92DF92EF92FF923E
:101E50000F931F93CF93DF93E3E4F4E086E495E0E0
:101E600097838683C9E4D5E0D0938404C093830428
:101E70000DE215E0158B048B22ED34E037AF26AF71
:101E80006CEC74E0709388046093870421E235E081
:101E9000309386042093850423E235E030938A044E
:101EA000209389042EEC34E030938C0420938B042F
:101EB00020ED34E030938E0420938D0444ED54E003
:101EC0005093CA044093C904F093AE04E093AD0468
:101ED000F583E48321E030E0DC012D933C93109204
:101EE000C4041092CB0429E035E089ED94E0D901D7
:101EF0008D939C9385EE94E090930C0580930B0555
:101F000081EF94E090930E0580930D058DEF94E0A2
:101F10009093100580930F0585E79AE0DB018D9380
:101F20009C9365EA7AE0DA016D937C9310923E050A
:101F300010923F051092400510924105318720878D
:101F400027E932E0338722872BE435E03983288381
:101F500040E050E060E87FEB40934205509343053A
:101F600060934405709345054AE057ED63E27CE3D6
:101F7000D8014D935D936D937C931397C1E1D5E0A8
:101F800049EE55E561ED73EF488359836A837B839E
:101F900048E755E767E974E7409315055093160540
:101FA00060931705709318054FEC5DEB62EC77EAD0
:101FB0004093190550931A0560931B0570931C05F7
:101FC0004EE658E060E27EEE40931D0550931E05FC
:101FD00060931F0570932005A7E3B4E0B383A28349
:101FE000E1E3F4E01196FC93EE932CE932E03183C7
:101FF0002083338322833583248327E235E01596BB
:102000003C932E9314971396DC93CE9312974FEF35
:102010005FEFBA0118964D935D936D937C931B9778
:10202000E0E0F2E0448D558D668D778D4093AC0AEB
:102030005093AD0A6093AE0A7093AF0AC08CD18CF6
:10204000E28CF38CDC01CD92DD92ED92FC92139741
:10205000C1E8DAE04E875F87688B798B44855585C8
:102060006685778514964D935D936D937C93179752
:102070004085518562857385FC0140875187628761
:1020800073878091440290914502A0914602B091DD
:1020900047028C8F9D8FAE8FBF8F1886C12CD12C9D
:1020A0007601C394C986DA86EB86FC860E94C1025B
:1020B00011E01D871F821882C982DA82EB82FC82BE
:1020C00048E85AE065E184E10E9496011D831E8282
:1020D0008F81DF91CF911F910F91FF90EF90DF9053
:1020E000CF900C94B1028091890A811103C081E0E4
:1020F0008093890A8091810A811114C081E08093C4
:10210000810A8091820A9091830AA091840AB091F9
:10211000850A0197A105B10529F48091860A8111EC
:102120000C94BE0208954F925F926F927F928F92AD
:102130009F92AF92BF92CF92DF92EF92FF920F9356
:102140001F93F89440906305509064056090650576
:1021500070906605C0905705D0905805E0905905DD
:10216000F0905A054130510509F0A4C09B01AC0123
:10217000241935094609570929013A0100915F05DB
:102180001091600520916105309162054801590167
:10219000840C951CA61CB71C80169106A206B306DB
:1021A000A0F400915B0510915C0520915D053091D4
:1021B0005E050F5F1F4F2F4F3F4F00935B0510933E
:1021C0005C0520935D0530935E0580925F059092DB
:1021D0006005A0926105B092620500915B051091C7
:1021E0005C0520915D0530915E05809267059092B7
:1021F0006805A0926905B0926A0500936B0510937B
:102200006C0520936D0530936E05609363057093A4
:1022100064058093650590936605A0E1B7E2A3018C
:1022200092010E94A13B6C0D7D1D8E1D9F1D609330
:102230005705709358058093590590935A0500915E
:102240004C0210914D0220914E0230914F020F3FEF
:102250001F4F2F4F3F4FF1F000914C0210914D0254
:1022600020914E0230914F020E3F1F4F2F4F3F4F94
:1022700089F0C0904C02D0904D02E0904E02F09058
:102280004F0221E08C149D04AE04BF0408F420E04A
:102290002093730578941F910F91FF90EF90DF903A
:1022A000CF90BF90AF909F908F907F906F905F90F6
:1022B0004F9008954B015C0184189508A608B70853
:1022C000A3019201261B370B480B590B64157505AA
:1022D00086059705D0F082169306A406B50640F44D
:1022E00020E030E0A90181149104A104B10491F42B
:1022F000A0E1B7E20E94A13BA7019601261B370B84
:10230000480B590BCA01B901C5CF82169306A40622
:10231000B50670F7A0E1B7E2A50194010E94A13BC8
:102320006C0D7D1D8E1D9F1DB5CFFDCECF93DF9310
:1023300000D01F92CDB7DEB71C821B821A82198291
:1023400010926F051092700510927105109272052F
:10235000BE016F5F7F4FCE0103960E94972E698169
:102360007A818B819C810E948527009761F4BE0150
:102370006F5F7F4FCE0103960E94A32E69817A8101
:102380008B819C812BD50F900F900F900F90DF9138
:10239000CF910895FF920F931F93CF93DF93082F50
:1023A00060E070E0CB010E948635FF24F3940E9428
:1023B0006E26EC01892B89F010E0CE3F8FEFD80715
:1023C00069F0002361F160E070E0CB010E94863586
:1023D00081E090E0892B59F322C011E022D5EC0175
:1023E000892B21F0CE3F8FEFD80759F711111EC06E
:1023F00011E0229609F410E00E941E26EC01892BC0
:1024000021F0CE3F8FEFD807E1F6111111C011E096
:10241000CE3F8FEFD80709F410E001110BC0CE01B9
:10242000DF91CF911F910F91FF90089511E0E4CFBC
:1024300011E0F3CF60E070E0CB010E9486351F25EC
:10244000812F90E0C7CFCF93DF93809173058823CE
:1024500021F060E070E0CB0149D632D6D0E0C0E098
:10246000892B71F06AE070E080E090E00E94863590
:1024700081E090DF25D62196C03D27E0D20781F785
:1024800024D60E94D92710928B0510928A051092AB
:10249000840510928505109286051092870510928A
:1024A000800510928105109282051092830510928A
:1024B0007C0510927D0510927E0510927F0510928A
:1024C00078051092790510927A0510927B0510928A
:1024D00074051092750510927605109277054EEFEF
:1024E0005FEF6FEF7FEF40934C0250934D0260938C
:1024F0004E0270934F0210927305E7E6F5E028E074
:10250000DF011D922A95E9F7109263051092640588
:10251000109265051092660510925F051092600595
:10252000109261051092620510925B0510925C0595
:1025300010925D0510925E05109257051092580595
:102540001092590510925A05DF91CF91089510927B
:102550009705109298051092990510929A0510927D
:10256000960580919F059091A00590939505809385
:102570009405109293051092920510928E05109278
:102580008F05109290051092910510929C05109263
:102590009B0590E080E00895CF92DF92EF92FF924A
:1025A0000F931F93CF938C01019709F055C0209191
:1025B0009F053091A00580919405909195054091DB
:1025C0009F055091A00550939505409394052817B9
:1025D000390781F0109293051092920510928E05A2
:1025E00010928F05109290051092910510929C0503
:1025F00010929B0580919F059091A005019761F530
:1026000080919B0590919C05892B21F4809150022B
:10261000811112C080919B0590919C050197E1F476
:1026200080918E0590918F05A0919005B0919105B4
:102630000197A105B10581F410928E0510928F05C6
:1026400010929005109291051092500282E090E055
:1026500090939C0580939B0580919F059091A00588
:10266000019709F01CC18091B5059091B6058017BE
:10267000910709F014C18091B1059091B205A09124
:10268000B305B091B405009709F409C12091B005D4
:1026900021110DC04091B1055091B2056091B30573
:1026A0007091B405452B462B472B09F4F8C02091B7
:1026B0009B0530919C052230310509F0F0C0209136
:1026C00092052111ECC0FC01C080D180E280F38032
:1026D00080919605882309F4D3C08091A20590913A
:1026E000A305892B09F4FEC02091A2053091A30512
:1026F00081E02230310509F080E02091A20530917F
:10270000A305C1E02130310549F02091A2053091A7
:10271000A305C1E02230310509F0C0E0882309F4A7
:1027200056C02091AC053091AD054091AE05509159
:10273000AF05C701B6010E94993287FD14C02091F0
:10274000AC053091AD054091AE055091AF0560915B
:102750009705709198058091990590919A050E942E
:102760004A3187FD22C02091AC053091AD054091E2
:10277000AE055091AF05C701B6010E9499321816F7
:1027800034F52091AC053091AD054091AE055091E6
:10279000AF0560919705709198058091990590918A
:1027A0009A050E944A31811112C08091A40590912E
:1027B000A505A091A605B091A705892B8A2B8B2B87
:1027C00019F481E08093930581E080939205CC23F6
:1027D00009F456C02091AC053091AD054091AE058D
:1027E0005091AF05C701B6010E944A3187FF14C05E
:1027F0002091AC053091AD054091AE055091AF05EB
:1028000060919705709198058091990590919A052E
:102810000E94993287FF22C02091AC053091AD050E
:102820004091AE055091AF05C701B6010E944A31F3
:10283000811126C02091AC053091AD054091AE05C7
:102840005091AF0560919705709198058091990519
:1028500090919A050E949932181694F48091A405DB
:102860009091A505A091A605B091A705892B8A2B6B
:102870008B2B19F481E08093930581E0809392057E
:1028800081E090919205911180E080939605C0922D
:102890009705D0929805E0929905F0929A0501303B
:1028A000110509F067C180919B0590919C05892BCA
:1028B000D9F41092A10510929205809150028823BC
:1028C00079F082E090E090939C0580939B051092B4
:1028D000500220919F053091A00581E0232BE9F063
:1028E00080E01BC081E009CF109250028091A105C9
:1028F000882349F01092930510929C0510929B0535
:102900001092A105EDCF80919F059091A005892B94
:10291000E1F0809192051092920520919B053091F3
:102920009C052230310509F45EC088F4211531057B
:1029300009F448C02130310509F4F3C01092930521
:10294000109292051092A10538C081E0E6CF2330A5
:10295000310509F4B1C02430310581F740918E056D
:1029600050918F0560919005709191054115510529
:102970006105710561F04150510961097109409388
:102980008E0550938F05609390057093910540914B
:102990008E0550918F056091900570919105452BA2
:1029A000462B472BD9F420919D0530919E0521306F
:1029B000310509F046C01092930510929C051092C3
:1029C0009B050CC080915002882341F082E090E08A
:1029D00090939C0580939B051092500210928C0559
:1029E00080919305CEC08823C9F38091A40590916E
:1029F000A505A091A605B091A705181619061A06F7
:102A00001B060CF07DC080919F059091A005019759
:102A100009F076C08091A4059091A505A091A60526
:102A2000B091A70580938E0590938F05A093900594
:102A3000B093910583E090E090939C0580939B0573
:102A4000CDCF4091A8055091A9056091AA0570913C
:102A5000AB05452B462B472BA9F01092930580918F
:102A6000A8059091A905A091AA05B091AB05809306
:102A70008E0590938F05A0939005B093910581E00A
:102A800090E0DACF882399F0809151029091520220
:102A9000A0915302B091540280938E0590938F05BC
:102AA000A0939005B093910584E090E0C5CF10927B
:102AB000930582E090E0C0CF80918E0590918F05C4
:102AC000A0919005B09191050097A105B10559F02D
:102AD0000197A109B10980938E0590938F05A0936A
:102AE0009005B093910580918E0590918F05A091EE
:102AF0009005B0919105892B8A2B8B2B09F06ECF15
:102B00008091510290915202A0915302B0915402CF
:102B1000892B8A2B8B2B09F44ECF81E08093930570
:102B2000B3CF40918E0550918F05609190057091C3
:102B30009105411551056105710561F0415051093B
:102B40006109710940938E0550938F05609390053C
:102B50007093910540918E0550918F05609190057D
:102B600070919105452B462B472B09F037CF8111EA
:102B7000C7CF9FCF80918C05882309F431CF8091F6
:102B80008D05CF911F910F91FF90EF90DF90CF9027
:102B90000895109297051092980510929905109239
:102BA0009A051092960510929C0510929B05109222
:102BB0009505109294051092B6051092B5051092E5
:102BC00093051092920510928E0510928F05109227
:102BD00090051092910510928D0510928C0510921F
:102BE000B1051092B2051092B3051092B40510927F
:102BF000B0051092AC051092AD051092AE05109282
:102C0000AF0588EE93E0A0E0B0E08093510290938E
:102C10005202A0935302B09354021092A80510924E
:102C2000A9051092AA051092AB051092A405109266
:102C3000A5051092A6051092A7051092A305109263
:102C4000A20581E0809350021092A1051092A00588
:102C500010929F0510929E0510929D0590E080E0D5
:102C6000089580919F059091A005892BE1F48091B2
:102C70005002882351F08091A105811106C081E0A6
:102C800080938D0580938C0508958091A1058823FC
:102C900041F080915002811104C010928D0581E0B5
:102CA000F1CF10928C05089582E090E0FA019183B3
:102CB00080838FEF9FEF0895CF93DF93EA01009712
:102CC00011F00E94F9281982188290E080E0DF91CB
:102CD000CF910895DB01009719F48FEF8C9308953D
:102CE0002EEF2C93FC017096E031F10508F037C00F
:102CF0008827E258F94E8F4F0C94993BAD16AB16CE
:102D0000A916A716A516A3169F16A1169D169B1603
:102D10009916961692168E169416AF1680E3119693
:102D20008C93089589E2FBCF82E2F9CF11961C9231
:102D3000089583E2F4CF81E2F2CF81E1F0CF87E220
:102D4000EECF8AE2ECCF80E1EACF84E2E8CF88E2FE
:102D5000E6CF86E2E4CF81E3E2CF83E3E0CF80E217
:102D6000DECF8091C3059091C40508959093C4056A
:102D70008093C30508958091C20508959091C2057E
:102D8000892B8093C2050895982F90958091C20554
:102D900089238093C20508958091C105089580918B
:102DA000BF059091C00508956115710559F0FB01AB
:102DB00030E020E070E060E02417350719F061157D
:102DC000710511F0CB010895A081B181A817B90751
:102DD00009F4BF012F5F3F4F3696EECF8091C505B6
:102DE00081111CC060D266D29093B8058093B7055C
:102DF0000E94F7200E9409219093BC058093BB0597
:102E00000E9486250E948D259093BA058093B9056E
:102E100081E08093C50590E080E0089584EF9FEF06
:102E200008958F929F92AF92BF92CF92DF92EF92CE
:102E3000FF920F931F93CF93DF9300D000D000D069
:102E40001F92CDB7DEB71A86198618861F821E829A
:102E50001D821C821B821A8219828091C50507EF90
:102E60001FEF882309F49CC08E010D5F1F4F9E0148
:102E70002B5F3F4FAE01495F5F4FBE01675F7F4FE2
:102E800090E080E00E940A278C01009721F00596CF
:102E9000029708F0DBC029853A852115310509F430
:102EA00002C1ED80FE804B815C81B701640F751F0C
:102EB0008F8198858617970708F4F5C0E20EF31EF8
:102EC000D7019C91903C09F07FC04230510508F435
:102ED0007BC011968C914091C3055091C405452B40
:102EE00009F49CC0913F08F071C02CE1290F2D30EE
:102EF00008F48BC02DE2290F203108F489C0903CE2
:102F000021F48150823008F483C088E3890F8B302C
:102F100008F481C09AE6C92E96E1D92EE4E5F6E1DF
:102F20006D817E81AE014F5F5F4F89859A851995CE
:102F30005C01C114D104A1F189809A8081149104AB
:102F400079F18B819C818815990508F487C010E080
:102F500000E04B815C8170E060E0C7010E94C33BF0
:102F600001151105E9F449815A8169857A858D81B8
:102F70009E81680F791FC501F6011995E980FA80D5
:102F80000D811E812F81388549855A856FEF7FEF2E
:102F900081E090E00E94A5268C01892B09F056C0A3
:102FA000C8012A960FB6F894DEBF0FBECDBFDF91E1
:102FB000CF911F910F91FF90EF90DF90CF90BF9036
:102FC000AF909F908F90089580E085CF30E020E013
:102FD000220F331FF901E954FA4F0190F081E02DDF
:102FE000309709F497CF892F90E01995009709F44D
:102FF00091CFDC011296ED91FC9113971496CD9030
:10300000DC90309709F08CCF1FC021E030E0E0CF9A
:1030100022E030E0DDCF23E030E0DACFD12CC12C4C
:10302000ECE5F6E19F3F09F07BCFE091B705F09129
:10303000B805309721F4C90104EF1FEF0CC08FEFE2
:1030400090E019950097A9F604EF1FEF89859A85FE
:10305000009709F4A5CF0E94F928A2CF0E94D42797
:103060008C0189859A850E94F92870E060E0C4018E
:103070000E946D2798878F830E94A2269E838D834E
:103080006F8178856115710559F0C8010E94852A04
:103090009A87898706EF1FEF892B09F058CF59CF00
:1030A00008EF1FEF56CF08EF1FEFD0CF2091C505D7
:1030B000222319F020E00C940E2187EF9FEF089552
:1030C0008091C3059091C40508950E9492250E94A5
:1030D000EC24F5D0E7EBF5E088E0DF011D928A955E
:1030E000E9F71092C50590E080E008950C944A231A
:1030F00021E040E050E0BA010C940E2186E090E01F
:10310000FA019183808390E080E0089547E050E0E9
:103110006FE972E049CEDF92EF92FF920F931F9317
:10312000CF93DF938A01EC01C60FD71FE090C9054A
:10313000F090CA05D9800E94BC27D816190678F0ED
:1031400082E090E0F801918380838EEF9FEFDF9122
:10315000CF911F910F91FF90EF90DF900895EF288E
:1031600041F482E090E0F8019183808384EF9FEF47
:10317000EECF89818093C80590E00196F801918394
:10318000808390E080E0E3CFCF93DF93EA010E9459
:10319000FB23882321F00E94C9270E94FC2382E0A0
:1031A00090E0998388838BEF9FEFDF91CF91089513
:1031B000CF93DF93EB0186E0FB0111928A95E9F74B
:1031C0008FEF8883D8DD8983E7DD8A83E8DD9D83FF
:1031D0008C83DF91CF910895CF93DF93EA010E9412
:1031E000FE23811109C082E090E09983888385EFF6
:1031F0009FEFDF91CF91089590E080E0B7DD81E00F
:1032000090E09983888390E080E0F3CF0F931F9341
:10321000CF93DF93EA018C01060F171F0E94FE2354
:1032200081110BC082E090E09983888385EF9FEF46
:10323000DF91CF911F910F910895F8018181823024
:1032400038F082E090E0998388838EEF9FEFF0CF93
:1032500081E090E08BDD88E090E09983888390E0C6
:1032600080E0E6CFCF93DF930097D1F4EB01FB0131
:10327000329686E0DF011D928A95E9F78FEF888309
:1032800085E089831A820E94BC278B830E94BB271A
:103290009D838C8381E08E838F83DF91CF9108950E
:1032A000DF91CF9117CD86E898E19093C705809381
:1032B000C60508958091C6059091C705089510929E
:1032C000C7051092C60508958091C9059091CA0559
:1032D0000895411105C0611571058105910561F0E1
:1032E0006093C9057093CA058093CB059093CC0574
:1032F0004093CD0581E0089580E00895FF920F93FB
:103300001F93CF93DF938A01EC01C60FD71FF9807B
:103310000E94BC27F816190668F082E090E0F801D8
:10332000918380838EEF9FEFDF91CF911F910F915B
:10333000FF9008956C817D818E819F814B81C9DFD3
:10334000811108C082E090E0F8019183808384EFCE
:103350009FEFEACF89818093C80590E00196F8013C
:103360009183808390E080E0DFCFCF93DF93EA0109
:10337000FC01E60FF71F6481758186819781438187
:10338000A8DF811109C082E090E09983888384EFEF
:103390009FEFDF91CF91089581E090E0998388833A
:1033A00090E080E0F6CFE9ECF5E040815181628168
:1033B0007381480F511D611D711D408351836283CC
:1033C00073830895CF93C091C8054C2F50E060914E
:1033D000C9057091CA0501960E94BA3B8C2FE3DFA4
:1033E0001092C805CF910895009799F48091C9056E
:1033F0009091CA052FEFFB012083892B59F0209172
:10340000C80530E02F5F3F4F2417350719F4CB0173
:10341000D9CF60CC0895009799F48091C905909117
:10342000CA052FEFFB012083892B59F02091C80595
:1034300030E02F5F3F4F2417350719F4CB01C2CF7F
:1034400049CC089523E1AC01249FC001259F900D34
:103450001124E091D205F091D305E80FF91F2381E3
:1034600034812250310981E02230310508F080E0BA
:1034700008950F931F93CF93DF930091D40510917C
:10348000D505D0E0C0E080E00C171D0749F491E0BD
:10349000811190E0892FDF91CF911F910F910895B5
:1034A0008111F5CFCE01CEDF2196EECFA091D205CE
:1034B000B091D305109729F12091D4053091D5050D
:1034C00082179307F0F453E1589F9001599F300DF4
:1034D0001124A20FB31FED91FC911197309789F041
:1034E00012968C91681768F48DE0689FE00DF11DCD
:1034F000112480819181892B21F081E092814917EB
:1035000008F080E008959C0143E1429FC001439F81
:10351000900D1124E091D205F091D305E80FF91F29
:103520008385823091F481E090E0658176814091DD
:103530005502509156026417750711F490E080E02F
:10354000892B19F081E0232B09F080E00895FC011C
:10355000A081B1818DE0689FA00DB11D112413964B
:103560004D915C9185859685489F9001499F300DCE
:10357000589F300D1124C9010196611103C0478184
:1035800044FD04960895EF92FF920F931F93CF93FB
:10359000DF93EA01FC01E60FF71F02811381E4804B
:1035A000F5804F2D6E2DC80181DF81110DC082E0A5
:1035B00090E0998388838EEF9FEFDF91CF911F91E9
:1035C0000F91FF90EF900895C8013CDF882339F0F8
:1035D00082E090E09983888388EF9FEFEECF10938D
:1035E0005C0200935B02E0925D02F0925E0281E079
:1035F00090E09983888390E080E0DFCFCF92DF92E4
:10360000EF92FF920F931F93CF93DF937A01EC0118
:10361000C60FD71FC0905B02D0905C0200915D0284
:1036200010915E02412F602FC60140DF811110C052
:1036300082E090E0F701918380838AEF9FEFDF9132
:10364000CF911F910F91FF90EF90DF90CF90089551
:10365000C601F8DE882341F082E090E0F701918313
:10366000808388EF9FEFEBCF4C815D816E817F81FE
:103670009A8189818F3F41F082E090E0F701918348
:1036800080838EEF9FEFDBCFE3E1EC9D9001ED9D1A
:10369000300D1124E091D205F091D305E20FF31F14
:1036A0000190F081E02D2DE0029FE00DF11D11242D
:1036B0000190F081E02D27E0129FE00DF11D112413
:1036C000808391838B818283438354836583768354
:1036D0001F5F10935E0281E090E0F7019183808389
:1036E00090E080E0ACCFEF92FF920F931F93CF93C7
:1036F000DF937A018C01060F171FC091D205D0917C
:10370000D305209781F021E030E0F8018281938198
:103710004091D4055091D5058417950710F030E0FD
:1037200020E0232B71F482E090E0F7019183808305
:103730008EEF9FEFDF91CF911F910F91FF90EF9050
:10374000089543E1489F9001499F300D1124C20F15
:10375000D31F78DE882341F082E090E0F701918367
:10376000808388EF9FEFE6CFF801248135812038F0
:103770003105C8F687818111D6CF4181842F90E031
:103780008F7E009741F082E090E0F7019183808383
:1037900086EF9FEFCFCF4F833E832D8326812887EF
:1037A0001986223010F421E0288721E030E0F7016B
:1037B00031832083BFCF88E090E0FA01918380833A
:1037C00090E080E00895FB018FEF808381E18183A9
:1037D0008FEF9FEF9383828380E890E095838483CB
:1037E000168217820895FB018FEF808391E0918309
:1037F00082839383848384E3858381E090E097834D
:103800008683089582E090E0FA019183808380EFBF
:103810009FEF0895DF92EF92FF920F931F93CF9344
:10382000DF93EA01FC01E60FF71F8181813071F01F
:1038300082E090E0998388838FEF9FEFDF91CF91B3
:103840001F910F91FF90EF90DF90089582819381F7
:10385000D4802581E680F7800091D2051091D305B0
:103860000115110539F482E090E0998388838CEF8B
:103870009FEFE4CF4091D4055091D505841795076B
:1038800038F082E090E0998388838EEF9FEFD6CF67
:10389000892B39F082E090E09983888386EF9FEF4F
:1038A000CDCF8D2D8D7FB1F72130A1F781E0D110E3
:1038B00006C091E0E916F10431F080E004C0E2E0D6
:1038C000EE16F104D0F3882329F390E080E0BADD0E
:1038D000882339F082E090E09983888388EF9FEF16
:1038E000ADCFF801D38681E08487F686E586108A1D
:1038F000178681E090E09983888390E080E09ECFF6
:103900004DE050E069EC72E04FCA8F929F92BF92F7
:10391000CF92DF92EF92FF920F931F93CF93DF939B
:10392000EA01FC01E60FF71F828193810481B580D3
:10393000E091D205F091D305309791F482E090E0C8
:10394000998388838CEF9FEFDF91CF911F910F9127
:10395000FF90EF90DF90CF90BF909F908F90089551
:103960002091D4053091D5058217930738F082E075
:1039700090E0998388838EEF9FEFE6CF23E1289F25
:103980006001299FD00C1124EC0DFD1DE080F18019
:10399000E114F10499F28281081748F78DE0089F3D
:1039A00080011124E00EF11EF70180819181892BA5
:1039B00029F6BB20E1F2F7E0BF9E40011124C401CB
:1039C0000E94C028F70191838083E091D205F09195
:1039D000D305EC0DFD1D0190F081E02DE00FF11FEE
:1039E00080819181009739F482E090E09983888307
:1039F0008DEF9FEFA9CFA40170E060E00E94C33B70
:103A00008091D2059091D305C80ED91EF601808110
:103A10009181080F191FF801B28281E090E099832B
:103A2000888390E080E090CFAF92BF92CF92DF92F8
:103A3000FF920F931F93CF93DF93EA01FC01E60FF0
:103A4000F71F82819381F4800091D2051091D305F4
:103A50000115110581F482E090E0998388838CEF51
:103A60009FEFDF91CF911F910F91FF90DF90CF904B
:103A7000BF90AF9008952091D4053091D50582175D
:103A8000930738F082E090E0998388838EEF9FEF70
:103A9000E8CF2FEF2F0D2C3FA8F723E1289F6001DF
:103AA000299FD00C11240C0D1D1DF80180819181DE
:103AB000892B89F6FDE0FF9E50011124C5010E946B
:103AC000C028F80191838083E091D205F091D3055D
:103AD000EC0DFD1D80819181009739F482E090E02A
:103AE000998388838DEF9FEFBCCFA50170E060E0E4
:103AF0000E94C33BE091D205F091D305EC0DFD1D72
:103B0000F28281E090E09983888390E080E0A9CF01
:103B1000CF92DF92EF92FF920F931F93CF93DF9399
:103B2000860F971FFC01028113818091D20590912D
:103B3000D305892B81F082E090E0FA0191838083A4
:103B40008CEF9FEFDF91CF911F910F91FF90EF903E
:103B5000DF90CF900895C801B0E0A0E00197A109DF
:103B6000B1098F3F9F4FA105B10540F082E090E081
:103B7000FA01918380838EEF9FEFE4CF7A0183E196
:103B8000809F6001819FD00C1124C6010E94C02833
:103B9000EC01009741F482E090E0F701918380838B
:103BA0008DEF9FEFCFCFA60170E060E00E94C33B96
:103BB000D093D305C093D2051093D5050093D405B7
:103BC00090E080E02FEF3FEF41E061E070E0801790
:103BD000910741F481E090E0F7019183808390E0C8
:103BE00080E0B0CF3A8B298B1B864C877E876D8710
:103BF000188A1F8601966396EACFEF92FF921F9371
:103C0000CF93DF93EC0110E0F12CE12C6A811617C1
:103C1000B0F083E0689FB0011124AE014F5E5F4FAA
:103C2000C7010E942529009721F02FEF3FEF3A8B23
:103C3000298BDF91CF911F91FF90EF900895612F15
:103C4000CE0185DC61E070E00E946D27E816F90680
:103C500008F47C011F5FDACFF8942091D0053091F1
:103C6000D10581E02115310509F080E0232B09F011
:103C7000789408952F923F924F925F926F927F9225
:103C80008F929F92AF92BF92CF92DF92EF92FF926C
:103C90000F931F93CF93DF933C01660E771EF301C2
:103CA000828193814C01B12CA12CC091D205D0917D
:103CB000D305209769F021E030E06091D405709140
:103CC000D5058617970710F030E020E0232BD1F4BC
:103CD00082E090E0FA01918380838EEF9FEFDF9185
:103CE000CF911F910F91FF90EF90DF90CF90BF90F9
:103CF000AF909F908F907F906F905F904F903F908C
:103D00002F90089580925F0290926002A0926102CB
:103D1000B092620263E1689F9001699F300D1124A7
:103D2000C20FD31FF3018181833040F082E090E025
:103D3000FA019183808386EF9FEFD1CF2A012B81F7
:103D40003C81232BF1F4288139819F8191FF2EC082
:103D5000232B09F46FC02091D7059A81422F490F78
:103D60005527551FBA0141E050E06138710514F044
:103D700050E040E0452B09F45DC02A87920F9093F4
:103D8000D7058150823008F481C066DF882309F4AA
:103D9000D8C0F3018181813009F48DC008F47BC063
:103DA000823009F4C6C090E080E0ADC0232B09F456
:103DB00041C02091D6059A81E22FE90FFF27FF1F0E
:103DC00041E050E0ED3FF10514F050E040E0452BBC
:103DD00089F12A87920F9093D605D3CFA081B18124
:103DE000A20FB31F11966C91060F111D0196295F4A
:103DF0003F4F8417950794F38D859E85089F10018A
:103E0000099F300C189F300C1124C114D104D1F437
:103E10008F8184FF17C00E94BB27F5E02F0E311C55
:103E200021E08215930508F420E0A701435F5F4F6E
:103E300021110EC082E090E0F2019183808387EF30
:103E40009FEF4DCF0E94BB272FEF221A320AE8CFF7
:103E500088819981E80EF91EF70114830383FFEF2F
:103E6000CF1ADF0A7A018A818C151D0409F00CF43F
:103E70008CCFE881F981EE0DFF1D428150E030E0EA
:103E800020E010E000E090E080E0B3CFF12CE12CE6
:103E9000D12CC12CE8CF81E090E09C838B83E9DAC0
:103EA000882309F480CF81E090E00E94B61680E478
:103EB0000E94C41678CF89899A89019661F083E0BF
:103EC00090E09C838B8382E090E00E94B61680E4B1
:103ED0000E94BE1668CF8D819E812091550230913F
:103EE000560282179307D1F46091590270915A02D9
:103EF000AE014F5E5F4F80915702909158020E9431
:103F0000442A0097E1F2789422E030E0F201318314
:103F10002083892B99F08DEF9FEFE1CE89288A28A5
:103F20008B2869F6039758F6CE0167DE188A1F863C
:103F3000E8CF82E090E09C838B8335CF90E080E0F7
:103F4000CECE82E090E0F2019183808385EF9FEFF7
:103F5000C6CE8F929F92AF92BF92CF92DF92EF9296
:103F6000FF920F931F93CF93DF93EA018C01060F0B
:103F7000171FF8018181833098F082E090E09983E7
:103F8000888386EF9FEFDF91CF911F910F91FF9074
:103F9000EF90DF90CF90BF90AF909F908F9008955B
:103FA0008091D2059091D305892B61F081E090E05A
:103FB0002091D4053091D505232B11F490E080E0B9
:103FC000892B39F482E090E0998388838EEF9FEF0C
:103FD000DACF42DE882309F4E0C0F8018181813024
:103FE00009F496C0E8F0823099F42091D40530911C
:103FF000D505E091D205F091D30590E080E041E055
:1040000050E02817390709F0BEC033DA811117C014
:10401000789481E090E09983888390E080E0B3CF4A
:104020002091D4053091D505E091D205F091D305CA
:1040300090E080E041E050E02817390741F481E04A
:1040400090E00E94B61680E40E94C416E1CF63811E
:104050007481672B11F05483438301967396ECCFE0
:10406000E091D205F091D305E00FF11F2381348157
:1040700022303105D9F4218932892F3F3F4FB1F4E5
:1040800025813681409155025091560224173507FB
:1040900061F5AF014F5E5F4F6091590270915A0216
:1040A00080915702909158020E94442AEFEFCE1A55
:1040B000DE0AEE0AFE0A0D5E1F4F4091D4055091B4
:1040C000D50570E060E0C416D506E606F70644F5AF
:1040D000009731F27894892B09F49BCF82E090E02D
:1040E000998388838DEF9FEF4ECFC114D104E104F3
:1040F000F104E1F623303105C8F6CF017EDDE09111
:10410000D205F091D305E00FF11F108A1786CECFAC
:1041100010E000E090E080E0C12CD12C7601CDCF02
:104120000097C1F610E000E0812C912C540183E04F
:10413000E82EF12C1AC0E091D205F091D305E00FE2
:10414000F11F83819481029749F4F482E38282E033
:1041500090E00E94B61680E40E94BE16FFEF8F1A10
:104160009F0AAF0ABF0A0D5E1F4F8091D405909140
:10417000D505B0E0A0E088169906AA06BB06DCF2D9
:1041800090E080E0A7CF638174816230710511F403
:10419000548343830196739634CF82E090E09983F1
:1041A000888385EF9FEFEFCE0097B9F48FEFFB0187
:1041B000808320915F023091600243E1429FC00101
:1041C000439F900D1124E091D205F091D305E80FA3
:1041D000F91F8285FB01818308950C946A1688E09B
:1041E00090E0FA019183808390E080E0089510923E
:1041F000D1051092D005E2EDF5E086E0DF011D92D9
:104200008A95E9F780E89CE19093CF058093CE05ED
:1042100008958091CE059091CF0508952F923F92F9
:104220004F925F926F927F928F929F92AF92BF92C6
:10423000CF92DF92EF92FF920F931F93CF93DF9372
:10424000CDB7DEB72F970FB6F894DEBF0FBECDBF48
:10425000F894E091D005F091D1053196F093D10515
:10426000E093D00578944090D2055090D305411446
:10427000510409F40CC2E091D405F091D505EF2B5F
:1042800009F405C22D8749875A876B877C879887F1
:104290008F831201B12CA12C10E000E08091D40595
:1042A0009091D505A816B90618F40115110529F144
:1042B000F8948091D0059091D10501979093D10504
:1042C0008093D0057894C8012F960FB6F894DEBF7E
:1042D0000FBECDBFDF91CF911F910F91FF90EF9057
:1042E000DF90CF90BF90AF909F908F907F906F9016
:1042F0005F904F903F902F9008957101E418F5085A
:10430000D10117968C91179781FD54C013968D910A
:104310009C911497039709F04DC015968D919C912F
:10432000EF81F8858E179F0709F044C0B50190E032
:1043300080E07FD48A832091D2053091D3053D83DC
:104340002C833D85332309F44CC04C815D81452B82
:1043500009F49AC18091D4059091D505A816B906A3
:1043600008F092C1C501CFD88823E9F06C817D8126
:104370006E0D7F1D7D836C83DB011F968D919C915B
:10438000892B89F0D12CC12CF12CE12CAC81BD8181
:1043900012968C9112978E151F0409F094F4509682
:1043A0001C921E921F972A81222321F0B50190E0D2
:1043B00080E041D43FEFA31AB30A43E1240E311C3D
:1043C0006DCFAC81BD81ED91FC91EC0DFD1D858122
:1043D00096810FD7BFEFEB1AFB0AEDE0CE0ED11C92
:1043E000D5CFEC81FD81309709F44EC18091D40581
:1043F0009091D505A816B90608F046C1EE0DFF1D2F
:10440000FF87EE87C5017FD88B83882339F1AE857E
:10441000BF851F968D919C915097019621E01D9626
:104420004D915C918417950709F020E02E83198245
:10443000712C10E000E0AE85BF8512968C91781645
:1044400008F45DC0EE85FF858785908901966585B6
:1044500076850E94633B908B8787A5CFB1E0BE83B2
:10446000E6CF992493946BC08BD6F601968385830F
:1044700082C0D601ED90FC90B7E06B9EE00CF11C81
:104480001124F7016381748180818F3F61F121E004
:1044900030E002C0220F331F8A95E2F7C901092ECE
:1044A000000CAA0BBB0BFB0140815181628173811F
:1044B00084239523A623B72321E0892B8A2B8B2BDA
:1044C00009F420E0D4012C93D70111968C91F601C8
:1044D00023853485820F932F911D880E991E148693
:1044E000138663949BC0418150E0C4010E94BA3B93
:1044F000EBCF998206EF1FEFC5C01982C3C0F981C7
:10450000F111A0CFEDE07E9E70011124AE85BF8534
:10451000CD90DC90CE0CDF1C15D49D838C83BB81A9
:10452000BB2309F49ECF81E0EE85FF852785308986
:10453000232B09F080E0982E882309F458C0672DBA
:104540008E859F8504D8D60118969C938E931797D5
:1045500061E070E0C2D4EE85FF85218932892F3F6A
:10456000320709F481CFBC01C901CFD7D601169615
:104570009C938E931597D60115968D919C911697C5
:10458000009709F4B6CFEC81FD818E0F9F1F1A961C
:104590009C938E931997AE85BF85ED91FC911197F1
:1045A000EE0EFF1EF70121853285148613861A96BA
:1045B0008C91870DD9018D93711016C0EE85FF8502
:1045C000878184FF11C049855A856B857C85F901F7
:1045D0004183528363837483F701838594850496B2
:1045E000A80FB91F14861386F701B287A187D601D9
:1045F00015968D919C911697892B09F443C0EE85F1
:10460000FF852581368180915502909156022817A9
:10461000390779F019968D909C90612CD6011296ED
:104620008C911297681608F424CF1A969C928E9259
:104630001997BE81BB2309F460CF61E070E0F601F9
:10464000878190854AD4D6011796ED90FC901897F3
:1046500015964D915C91E1E0F0E0BA81BB2311F039
:10466000F0E0E0E00C811D819C01B50188279927CD
:104670008E1B9F0B6AD38C01892B21F0F60185815B
:104680009681B7D57394D7CE0FEF1FEF8CCE10E085
:1046900000E00ECE2F923F924F925F926F927F92E8
:1046A0008F929F92AF92BF92CF92DF92EF92FF9242
:1046B0000F931F93CF93DF938091D2059091D305F1
:1046C00010E000E0892BA9F0C7DA0AEF1FEF88237A
:1046D00081F02090D4053090D505C091D205D091BD
:1046E000D305D12CC12C10E000E02C143D04A9F41A
:1046F0007894C801DF91CF911F910F91FF90EF90B7
:10470000DF90CF90BF90AF909F908F907F906F90F1
:104710005F904F903F902F900895C6010E94831A9A
:10472000882309F18B819C810397E9F48F8598890F
:10473000892BC9F0B60190E080E07BD221E030E027
:10474000882311F030E020E044245524421A530A13
:10475000B12CA12C912C812C8A818815190409F087
:1047600038F4188A1F864FEFC41AD40A6396BDCF57
:10477000E881F981EA0DFB1D85819681892BA1F1E4
:1047800061E070E087819085A8D33C01DBD28C0189
:10479000E881F981EA0DFB1D8185928525813681AD
:1047A000200F311FAC01421B530B9A0147815085EA
:1047B000421B530B70E060E00E94C33BE881F9812B
:1047C000EA0DFB1DE780F084458156819301B60117
:1047D000C201BBD28C01892B39F0E881F981EA0D45
:1047E000FB1D8581968105D55FEF851A950A8DE0C1
:1047F000A80EB11CB1CF30CA789408952F923F9281
:104800004F925F926F927F929F92AF92BF92CF92A0
:10481000DF92EF92FF920F931F93CF93DF9300D01D
:1048200000D0CDB7DEB70091D2051091D305992401
:1048300093940115110509F43EC0A090D405B090E1
:10484000D5050ADA982E8823B1F11092D30510927B
:10485000D2051092D5051092D4051092D60510926B
:10486000D7058FEF9FEFDC0180935F02909360028A
:10487000A0936102B093620278947FD31E830D836C
:10488000C12CD12C7601C501B0E0A0E089839A83C8
:10489000AB83BC8322242A94322C89819A81AB81F8
:1048A000BC81C816D906EA06FB06F4F0C801A1D4FB
:1048B00080E40E94C416892D26960FB6F894DEBFB8
:1048C0000FBECDBFDF91CF911F910F91FF90EF9061
:1048D000DF90CF90BF90AF909F907F906F905F9050
:1048E0004F903F902F900895AD81BE8115968D9188
:1048F0009C9116972091550230915602821793078A
:10490000D1F451968D919C91EED5ED81FE818081FF
:104910009181B12CA12C412C512C3201892B89F58C
:10492000BFEFCB1ADB0AEB0AFB0AED81FE8173961F
:10493000FE83ED83B2CFC114D104E104F10429F761
:10494000039718F7ED81FE81818992898F3F98073F
:1049500009F029D5AD81BE8152963C922E92519795
:10496000D4CF8A0D9B1DDC018D919C91009709F09D
:1049700040D4BFEF4B1A5B0A6B0A7B0AEDE0AE0E28
:10498000B11CAD81BE818D919C91119712964C9175
:1049900050E070E060E044165506660677060CF3BA
:1049A00028D4BECFCF93DF93EA0128DF811109C05D
:1049B00082E090E09983888385EF9FEFDF91CF912C
:1049C000089581E090E00E94B61681E090E099831E
:1049D000888390E080E0F2CF11DF1092CF05109233
:1049E000CE05089542E050E067E173E00C94D416E0
:1049F000FF920F931F93CF93DF938A01EC01C60FB1
:104A0000D71FF980B9D20897F816190671F068F027
:104A100082E090E0F801918380838EEF9FEFDF9139
:104A2000CF911F910F91FF9008956C817D818E81B0
:104A30009F814B810E946919811108C082E090E03A
:104A4000F8019183808384EF9FEFE9CFF9800E9482
:104A500064194F2D50E0BE01685F7F4F0E94BA3B42
:104A600089810E94D31981E090E0F80191838083CD
:104A700090E080E0D4CFDF92EF92FF920F931F93EC
:104A8000CF93DF938A01EC01C60FD71F0E946419F0
:104A90007C01D98071D2DD2059F0029721E030E00D
:104AA000D816190619F010F030E020E0232B79F425
:104AB00082E090E0F801918380838EEF9FEFDF9199
:104AC000CF911F910F91FF90EF90DF900895EF2805
:104AD00041F482E090E0F8019183808384EF9FEFBE
:104AE000EECFF9800E9464194F2D50E0BE016E5F39
:104AF0007F4F0E94BA3B89810E94D31981E090E0E8
:104B0000F8019183808390E080E0D9CF82EF94E236
:104B10009093D9058093D80508958091D8059091F8
:104B2000D90508950895FC01118210829383828330
:104B30000895DB011D921C92DC011296ED91FC910F
:104B400013977183608313967C936E9312970895E5
:104B5000FC0180819181DB018D939C93A081B181C7
:104B6000109741F08D919C9191838083892B11F452
:104B7000F383E2830895FC0180819181DB018D93B1
:104B80009C93892B11F473836283718360830895EE
:104B9000FC0111821082938382830895CF93DF9367
:104BA0001F921F92CDB7DEB71A821982F894BE0108
:104BB0006F5F7F4F8FED95E0CBDF89819A81009702
:104BC00009F017D389819A81892B89F7BE016F5F1C
:104BD0007F4F83EE95E0BCDF89819A81009709F0D1
:104BE00008D389819A81892B89F778940F900F9047
:104BF000DF91CF910895CF93DF931F921F92CDB78E
:104C0000DEB71A821982F894BE016F5F7F4F8BED79
:104C100095E09EDF89819A81009709F0EAD2898127
:104C20009A81892B89F778940F900F90DF91CF911B
:104C3000089581E0089590E080E00895EF92FF925A
:104C40000F931F93CF93DF931F921F92CDB7DEB7C1
:104C50001A8219828091DA0507EF1FEF8823A1F1EC
:104C6000F894BE016F5F7F4F83EE95E071DF78941B
:104C700089819A81EE24E394F12C892B51F4F894E4
:104C8000BE016F5F7F4F8FED95E062DF7894F12C6E
:104C9000E12C89819A810EEF1FEF0097A9F0FC01AA
:104CA0004281538164E070E076D68C01892B61F0FB
:104CB000F89469817A81C701880F991F880F991F1D
:104CC00081529A4F58DF7894C8010F900F90DF916E
:104CD000CF911F910F91FF90EF9008950F931F9325
:104CE000CF93DF9300D01F92CDB7DEB71C821B821B
:104CF0001A8219828091DA0507EF1FEF8823C1F02D
:104D0000AE014D5F5F4F64E070E0CE010196B6D614
:104D10008C01892B69F4E981FA818B819C819383D1
:104D20008283F89469817A818BED95E002DF789433
:104D3000C8010F900F900F900F90DF91CF911F91AE
:104D40000F910895BBD7049608958F929F92AF92CA
:104D5000BF92CF92DF92EF92FF920F931F93CF9368
:104D6000DF931F921F92CDB7DEB71A821982BC0162
:104D70006F5F7F4F6330710598F0AA24AA94BA2C14
:104D8000C5010F900F90DF91CF911F910F91FF9070
:104D9000EF90DF90CF90BF90AF909F908F9008954D
:104DA0004115510551F3480159018A016C01CADFCF
:104DB0008815990511F7E114F104F9F28E0D9F1D84
:104DC000A816B906D0F28091DA058823F1F0F8949C
:104DD000B501645071099701AE014F5F5F4FC80183
:104DE0000496E1D65C01892B71F489819A81F801DE
:104DF00093838283C601880F991F880F991FB8017A
:104E000081529A4F96DE7894BBCF87EFA82EBB24B1
:104E1000BA94B6CFAF92BF92CF92DF92EF92FF9249
:104E20000F931F93CF93DF931F921F92CDB7DEB7DF
:104E30001A821982892B09F047C06115710509F49E
:104E400043C04115510509F43FC02115310509F44E
:104E50003BC001151105C1F18091DA058823B9F134
:104E600079016A015B01F894BE016F5F7F4F8BEDA2
:104E700095E06EDE789489819A81009759F1DC0182
:104E800012966D917C91A8010496A6D68C01E981B9
:104E9000FA81D501ED93FC93828193810496F6010A
:104EA000918380834FDFD7018D939C93C8010F902E
:104EB0000F90DF91CF911F910F91FF90EF90DF90B6
:104EC000CF90BF90AF9008950FEF1FEFEFCF07EF98
:104ED0001FEFECCF0EEF1FEFE9CFCF93DF93EC0185
:104EE000672B71F4F4D68C179D0760F0E7D62496F3
:104EF000C80FD91FE6D68C0F9D1FDF91CF91089563
:104F0000E3D6F1CF90E080E0F8CF0F931F93CF93DB
:104F1000DF932091DA0521112BC08B01EC018FED7D
:104F200095E001DE83EE95E0FEDD8BED95E0FBDDA7
:104F300097D00097C1F4CBD670E060E0CEDF43E6B7
:104F400052E062E070E081D1009769F480916302E1
:104F500090916402CED6B801CE0103D5009719F422
:104F600021E02093DA05DF91CF911F910F910895F1
:104F700084EF9FEFF8CFA8C6AAC6CF93DF93AAD637
:104F8000EC01892B11F40ADE36DECE01DF91CF91E0
:104F90000895CF93DF939ED6EC01892B09F4FEDDB3
:104FA000CE01DF91CF9108958091630290916402C8
:104FB0000895CF93DF938091DA05D0E0C0E0882395
:104FC000D1F09CD6EC01892BB1F4E8DD14DE8091A0
:104FD000630290916402E7D1E8D2EC01892B59F485
:104FE0008FED95E0D5DD83EE95E0D2DD8BED95E09C
:104FF000CFDD1092DA05CE01DF91CF910895EF92C7
:10500000FF920F931F93CF93DF93EC017A018B01F3
:105010000F5F1F4F0E9DA0010F9D500D1E9D500D47
:10502000112470E060E00E94C33B90E080E0F0E07B
:10503000E0E02FEFE816F90639F4DF91CF911F91E8
:105040000F91FF90EF9008951A821982288330976C
:1050500011F0D283C1830196FE01C00FD11FEACFA8
:10506000CF92DF92EF92FF920F931F93CF93DF9334
:1050700004E317E00C7F43E050E065E672E08BE666
:1050800092E01CD485E6E82E82E0F82E9BE6C92E3D
:1050900092E0D92EC3EBD7E0D7014D915D917D0110
:1050A000F601619171916F01198308835D834C83CF
:1050B0005B834A837F836E839B012F5F3F4F249FD7
:1050C000C001259F900D349F900D112499878887EA
:1050D0000115110511F0C80192DF88859985080F27
:1050E000191F2A96FBE6EF16F2E0FF06A9F6E9EE95
:1050F000F5E088E491E0DF019C011D9221503040F1
:10510000E1F71092E8051092E7051092D20710928D
:10511000D1071092D6071092D5071092D40710929B
:10512000D3071092D8071092D7071092DA0710927F
:10513000D9071092DC071092DB071092E00710925B
:10514000DF071092DE071092DD071092E20710923F
:10515000E1071092E4071092E3071092B007109253
:10516000AF071092B2071092B10790E080E0DF9194
:10517000CF911F910F91FF90EF90DF90CF90089506
:105180000097F1F0F894ABE6B2E0E3EBF7E030E043
:1051900020E04D915D9148175907A8F04281538155
:1051A0004115510581F08AE0829FF001839FF00D47
:1051B0001124ED54F84F80819181009759F478942F
:1051C00090E080E008952F5F3F4F3A9623303105FD
:1051D00001F7F5CFDC0111966D917C9171836083AD
:1051E0004150510953834283FC012193CF017894AC
:1051F0000895009749F1DC018E91853041F4E091EA
:10520000B107F091B2073097F9F0CD0119948530CC
:10521000D8F4282F30E0F8948FEF8C938AE0829FA7
:10522000F001839FF00D1124ED54F84F808191819E
:1052300012969C938E931197B183A0838281938160
:1052400001969383828378940895CF92DF92EF92B0
:10525000FF920F931F93CF93DF939C018CEE95E009
:105260008C7F4115510509F49BC02115310509F4C6
:1052700097C06115710509F493C07A01AB01B901BA
:105280006D5F7F4F6C7F9B012F5F3F4F249F80019D
:10529000259F100D349F100D1124F8942091D107F3
:1052A0003091D207232B59F42091D9073091DA0796
:1052B0002115310569F12017310708F058C02091F8
:1052C000DB073091DC07232B91F42091D907309133
:1052D000DA07820F931F2091E3073091E40721152D
:1052E000310509F441C02017310708F056C0789401
:1052F000CFEFDFEF86EF9FEFF701D183C083DF9120
:10530000CF911F910F91FF90EF90DF90CF90089574
:10531000C3E0D0E0C090E705D090E80525E431E097
:105320002C193D092017310710F32AE02C9FF001BA
:105330002D9FF00D1124ED54F84F918380835583F8
:105340004483538342837783668311870087009762
:1053500009F055DE0C0D1D1D1093E8050093E705BF
:10536000789490E080E0C8CFC4E0D0E0D3CFC3E031
:10537000D0E02AE02C9FF0012D9FF00D1124ED5478
:10538000F84F91838083558344835383428377838B
:105390006683009729F333DEE3CFC4E0D0E0E9CFA2
:1053A0008FEF9FEFACCF9C010397029708F069C085
:1053B000F89484E09AE0482F50E0241735070CF465
:1053C0004DC091E08AE0829FF001839FF00D11248F
:1053D000ED54F84F118210821582148213821282CA
:1053E000178216829923B1F18091D1079091D2074B
:1053F000892BA9F42091D9073091DA0721153105BD
:1054000071F08091E7059091E805821B930B9093D2
:10541000E8058093E7051092DA071092D90780918A
:10542000DB079091DC07892BA9F42091E3073091E9
:10543000E4072115310571F08091E7059091E805A9
:10544000821B930B9093E8058093E7051092E40785
:105450001092E307789490E080E00895949FF00123
:10546000959FF00D1124ED54F84F40815181452B4B
:1054700031F440855185452B11F481509CCF90E04B
:10548000A1CF8FEF9FEF08954115510549F1009786
:1054900039F16115710521F1F8942091AF07309130
:1054A000B007232BB9F42091B1073091B207232B19
:1054B00089F49093B0078093AF077093B20760931D
:1054C000B107789425E030E090E080E0FA01318384
:1054D0002083089578942FEF3FEF86EF9FEFF6CF6C
:1054E0008FEF9FEF0895059769F4F8941092B00735
:1054F0001092AF071092B2071092B107789490E023
:1055000080E008958FEF9FEF08956115710519F4FC
:10551000F0E0E0E011C08530910581F4E091AF0743
:10552000F091B0073097A1F3CB0101961995009740
:1055300079F3FC0185E08193CF0108959C0123500C
:1055400031092230310520F72AE0289FD001299F18
:10555000B00D1124AD54B84F2D913C911197232BD0
:10556000B9F216962D913C9117972617370780F2BE
:10557000F89412962D913C9113972115310529F03D
:10558000ED91FC911197309711F47894C1CF41813E
:10559000528111965C934E932150310913963C939E
:1055A0002E93129781937894C7CFE1E3F7E08EE7CB
:1055B000DF011D928A95E9F7E9EEF5E088E491E0D4
:1055C000DF019C011D9221503040E1F71092E80567
:1055D0001092E705E3EBF7E082E3DF011D928A9585
:1055E000E9F7EFEAF7E084E0DF011D928A95E9F739
:1055F00090E080E00895CF93DF93C0917102D09145
:105600007202CF3FDC0759F45FD49093720280930B
:10561000710297FF09C0D0937202C093710284EFA8
:105620009FEFDF91CF91089590E080E0FACF823034
:10563000910528F48093E50790E080E008958FEFCE
:105640009FEF08954F925F926F927F92AF92BF92B9
:10565000CF92DF92EF92FF920F931F93CF93DF933E
:105660001F921F92CDB7DEB71A821982009709F4F4
:1056700079C06115710509F475C0209171023091EE
:10568000720207EF1FEF2F3F3F4F09F445C06B0138
:105690005C01412C512C3201F12CE12C10E000E096
:1056A0009E012F5F3F4FA6014E195F09B5016E0D98
:1056B0007F1D80917102909172026AD4892B09F04A
:1056C0004BC089819A81009741F4E114F10429F4D7
:1056D0002091E507222309F442C0E80EF91EEC14DC
:1056E000FD04D0F480E8481684E858068EE1680688
:1056F000710420F560E070E0CB010E9486352AE05D
:10570000420E511C611C711C0A3F4FEF140721F01F
:10571000043F8FEF1807A1F4C8010F900F90DF919D
:10572000CF911F910F91FF90EF90DF90CF90BF909E
:10573000AF907F906F905F904F90089501EF1FEFB3
:1057400081E090E0013F2FEF120711F090E080E040
:10575000892B09F4A5CFE0CF04EF1FEFDDCF0AEFCF
:105760001FEFDACF0FEF1FEFD7CF4F925F926F92FD
:105770007F92AF92BF92CF92DF92EF92FF920F9300
:105780001F93CF93DF931F921F92CDB7DEB71A827C
:105790001982009709F479C06115710509F475C083
:1057A000209171023091720207EF1FEF2F3F3F4FA0
:1057B00009F445C06B015C01412C512C3201F12CE4
:1057C000E12C10E000E09E012F5F3F4FA6014E1933
:1057D0005F09B5016E0D7F1D80917102909172027B
:1057E0008AD3892B09F04BC089819A81009741F4B3
:1057F000E114F10429F42091E507222309F442C0C1
:10580000E80EF91EEC14FD04D0F480E4481682E49E
:1058100058068FE06806710420F560E070E0CB0167
:105820000E9486352AE0420E511C611C711C0E3FFD
:105830004FEF140721F0043F8FEF1807A1F4C801C0
:105840000F900F90DF91CF911F910F91FF90EF90EC
:10585000DF90CF90BF90AF907F906F905F904F9010
:10586000089502EF1FEF81E090E0023F2FEF120753
:1058700011F090E080E0892B09F4A5CFE0CF04EF90
:105880001FEFDDCF0EEF1FEFDACF0FEF1FEFD7CFF8
:1058900080917102909172028F3F980749F00CD36A
:1058A000892B49F48FEF9FEF9093720280937102DE
:1058B00090E080E0089584EF9FEF0895CF92DF920B
:1058C000EF92FF920F931F93CF93DF9321E0411547
:1058D000510509F020E04150510921112CC0DC0193
:1058E000FB01D12CC12C21E022C03FEFC31AD30A07
:1058F0007D010D911D91E701EA80FB80E016F10624
:10590000A8F420813181E280F380F182E082338348
:105910002283ED90FC9011979D0122503109E901FD
:10592000F982E88211961C930E9320E03296C416F9
:10593000D506D8F2D2CFDF91CF911F910F91FF9072
:10594000EF90DF90CF900895FC01680F791F90E0F1
:1059500080E0E617F70709F408952191820F911D61
:10596000F8CF2091E607211113C045DE009791F48E
:105970001092EC071092EB071092EA071092E907D9
:105980001092E8071092E70721E02093E6070895B8
:1059900084EF9FEF0895AF92BF92CF92DF92EF9284
:1059A000FF920F931F93CF93DF93009709F460C08A
:1059B0004630510508F45CC02091E607C7EFDFEFE1
:1059C000222309F449C08C01060F171FF801C0807B
:1059D000D180C114D10409F44EC096012A5F3F4F13
:1059E0004217530708F447C07C018091EB07909160
:1059F000EC0793838283B6016C5F7F4F5801A60E3C
:105A0000B71EC801A1DFF5019183808364E070E0D7
:105A1000C80118DEEC01892BF9F481E090E007DE83
:105A2000B601C80104960EDEEC01892B91F462E008
:105A300070E0C50107DEEC01892B59F4C701D9DB01
:105A40008091EB079091EC0701969093EC0780937F
:105A5000EB0790E080E0EBDDCE01DF91CF911F916D
:105A60000F91FF90EF90DF90CF90BF90AF9008958F
:105A7000CFEFDFEFF1CFC9EFDFEFEECF6F927F9285
:105A80008F929F92AF92BF92CF92DF92EF92FF924E
:105A90000F931F93CF93DF9300D01F92CDB7DEB744
:105AA000009709F47AC04115510509F476C0209198
:105AB000E60707EF1FEF222309F44DC03A017B01EF
:105AC0005C0164E070E0CE0101964FDE8C01892B11
:105AD00009F041C009811A810115110509F45AC064
