:020000040800F2
:1000000000000220F53500089D1D0008A51D000810
:10001000AD1D0008B51D0008BD1D00080000000052
:10002000000000000000000000000000E5110008D2
:10003000C51D000800000000A1110008C91000083B
:1000400045360008453600084536000845360008A4
:100050004536000845360008453600084536000894
:100060004536000845360008453600084536000884
:100070004536000845360008453600084536000874
:10008000D31D0008453600084536000845360008EF
:100090004536000845360008453600084536000854
:1000A0004536000845360008453600084536000844
:1000B0004536000845360008453600084536000834
:1000C0004536000845360008453600084536000824
:1000D0004536000845360008453600084536000814
:1000E000250F00084536000845360008453600084B
:1000F00045360008453600084536000845360008F4
:100100004536000845360008E11D00084536000860
:1001100045360008453600084536000845360008D3
:1001200045360008453600084536000845360008C3
:1001300045360008000000000000000045360008B9
:1001400045360008453600084536000845360008A3
:100150004536000845360008453600084536000893
:100160004536000845360008453600084536000883
:1001700045360008453600084536000800000000F6
:1001800000000000453600080000000000000000EC
:100190004536000800000000000000004536000859
:1001A00000000000000000000000000045360008CC
:1001B0004536000845360008453600084536000833
:0401C00045360008B8
:1001C40081F0004102E000BF83F0004330B54FEA04
:1001D40041044FEA430594EA050F08BF90EA020F71
:1001E4001FBF54EA000C55EA020C7FEA645C7FEA04
:1001F400655C00F0E2804FEA5454D4EB5555B8BF27
:100204006D420CDD2C4480EA020281EA030382EA97
:10021400000083EA010180EA020281EA0303362D29
:1002240088BF30BD11F0004F4FEA01314FF4801CFC
:100234004CEA113102D0404261EB410113F0004F0E
:100244004FEA03334CEA133302D0524263EB4303C5
:1002540094EA050F00F0A780A4F10104D5F1200E63
:100264000DDB02FA0EFC22FA05F2801841F10001BE
:1002740003FA0EF2801843FA05F359410EE0A5F192
:1002840020050EF1200E012A03FA0EFC28BF4CF0C3
:10029400020C43FA05F3C01851EBE37101F0004579
:1002A40007D54FF0000EDCF1000C7EEB00006EEB86
:1002B4000101B1F5801F1BD3B1F5001F0CD3490810
:1002C4005FEA30004FEA3C0C04F101044FEA445267
:1002D40012F5800F80F09A80BCF1004F08BF5FEAEE
:1002E400500C50F1000041EB045141EA050130BDCE
:1002F4005FEA4C0C404141EB0101013C28BFB1F5E0
:10030400801FE9D291F0000F04BF01460020B1FA2A
:1003140081F308BF2033A3F10B03B3F120020CDAFD
:100324000C3208DD02F1140CC2F10C0201FA0CF0DB
:1003340021FA02F10CE002F11402D8BFC2F1200C40
:1003440001FA02F120FA0CFCDCBF41EA0C019040F6
:10035400E41AA2BF01EB0451294330BD6FEA04043F
:100364001F3C1CDA0C340EDC04F11404C4F120022A
:1003740020FA04F001FA02F340EA030021FA04F33C
:1003840045EA030130BDC4F10C04C4F1200220FA93
:1003940002F001FA04F340EA0300294630BD21FAD1
:1003A40004F0294630BD94F0000F83F4801306BF97
:1003B40081F480110134013D4EE77FEA645C18BF8B
:1003C4007FEA655C29D094EA050F08BF90EA020F22
:1003D40005D054EA000C04BF1946104630BD91EA1A
:1003E400030F1EBF0021002030BD5FEA545C05D11D
:1003F4004000494128BF41F0004130BD14F580045C
:100404003CBF01F5801130BD01F0004545F0FE41CF
:1004140041F470014FF0000030BD7FEA645C1ABF04
:10042400194610467FEA655C1CBF0B46024650EA3B
:10043400013406BF52EA033591EA030F41F4002167
:1004440030BD00BF90F0000F04BF0021704730B5ED
:100454004FF4806404F132044FF000054FF00001C2
:1004640050E700BF90F0000F04BF0021704730B583
:100474004FF4806404F1320410F0004548BF404258
:100484004FF000013EE700BF42004FEAE2014FEAAD
:1004940031014FEA02701FBF12F07F4393F07F4F88
:1004A40081F06051704732F07F4208BF704793F08B
:1004B4007F4F04BF41F40021704730B54FF460749E
:1004C40001F0004521F000411CE700BF50EA0102A1
:1004D40008BF704730B54FF000050AE050EA01024A
:1004E40008BF704730B511F0004502D5404261EBBA
:1004F40041014FF4806404F132045FEA915C3FF4FB
:10050400D8AE4FF003025FEADC0C18BF03325FEA97
:10051400DC0C18BF033202EBDC02C2F1200300FA48
:1005240003FC20FA02F001FA03FE40EA0E0021FA6D
:1005340002F11444BDE600BF4FF0FF3C06E000BFEB
:100544004FF0010C02E000BF4FF0010C4DF804CD58
:100554004FEA410C7FEA6C5C4FEA430C18BF7FEA18
:100564006C5C1BD001B050EA410C0CBF52EA430C46
:1005740091EA030F02BF90EA020F0020704710F1C6
:10058400000F91EA030F58BF994208BF90422CBF55
:10059400D8176FEAE37040F0010070474FEA410C4E
:1005A4007FEA6C5C02D150EA013C07D14FEA430C6C
:1005B4007FEA6C5CD6D152EA033CD3D05DF8040BDD
:1005C400704700BF8446104662468C46194663460F
:1005D40000E000BF01B5FFF7B7FF002848BF10F1E6
:1005E400000F01BD4DF808EDFFF7F4FF0CBF01202B
:1005F40000205DF808FB00BF4DF808EDFFF7EAFFA7
:1006040034BF012000205DF808FB00BF4DF808ED61
:10061400FFF7E0FF94BF012000205DF808FB00BF56
:100624004DF808EDFFF7CEFF94BF012000205DF8E0
:1006340008FB00BF4DF808EDFFF7C4FF34BF0120ED
:1006440000205DF808FB00BF4FEA410212F50012DA
:1006540015D211D56FF47873B3EB625212D94FEA05
:10066400C12343F0004343EA505311F0004F23FAEF
:1006740002F018BF404270474FF00000704750EA44
:10068400013005D111F0004008BF6FF00040704701
:100694004FF00000704700BF53B94AB9002908BFA2
:1006A40000281CBF4FF0FF314FF0FF3000F00CB8B2
:1006B400ADF1080C6DE904CE02F0C4FFDDF804E0EE
:1006C400DDE9022304B07047704700BF0348044BC0
:1006D400834202D0034B03B118477047A80000209F
:1006E400A8000020000000000548064B1B1AD90F83
:1006F40001EBA301491002D0034B03B11847704723
:10070400A8000020A80000200000000010B5064C3E
:10071400237843B9FFF7DAFF044B13B10448AFF36E
:1007240000800123237010BDA800002000000000F9
:100734004C39000808B5054B1BB105490548AFF312
:100744000080BDE80840FFF7CFBF00BF00000000F5
:10075400AC0000204C39000880B483B000AF012302
:100764007B6000BF0C37BD465DF8047B704780B4E6
:1007740000AF00BFBD465DF8047B704780B483B012
:1007840000AF03463960FB7197F90730002B0ADB91
:100794003B68DAB20C4997F907301201D2B20B4424
:1007A40083F800230AE03B68DAB20849FB7903F0D6
:1007B4000F03043B1201D2B20B441A7600BF0C376C
:1007C400BD465DF8047B704700E100E000ED00E009
:1007D40080B584B000AFF860B9607A60FB68DBB2C2
:1007E4000F3BDBB25BB279681846FFF7C7FF00BF67
:1007F4001037BD4680BD000080B582B000AF4C4BC1
:100804001B785A1CD1B24A4A1170002B09D0494BAB
:1008140001221A60464B1B78013BDAB2444B1A7032
:1008240083E03B46184600F091F962B600BF00F041
:10083400E1F972B600BF3E4B1B78013BDAB23C4B88
:100844001A7001237B6024E03A467B6813441B78CA
:10085400002B1BD0384A7B6813441B785A1CD0B237
:1008640035497A680A4401461170002B0ED0314B89
:1008740001221A60304A7B6813441B78013BD9B2C9
:100884002D4A7B6813440A461A7005E07B680133DD
:100894007B607B68022BD7DD01237B6040E0244A28
:1008A4007B6813441B78002B3ED1234A7B68134496
:1008B4001B78002B31D01E4A7B6813441B7801330C
:1008C400D9B21B4A7B6813440A461A7062B600BF49
:1008D4007B68012B03D07B68022B03D005E000F07A
:1008E4002BFA02E000F076FA00BF72B600BF124A9B
:1008F4007B6813441B78013BD9B20F4A7B681344CD
:100904000A461A700A4A7B6813441B78013BD9B221
:10091400074A7B6813440A461A707B6801337B607C
:100924007B68022BBBDD00E000BF0837BD4680BDFD
:10093400C8000020C4000020CC00002080B584B092
:1009440000AF786039602D4BFB602D4BBB602D4BA5
:1009540000221A702C4B00221A7001DF02F000FEF4
:1009640000F0AEFD00F036FB00F0ECFE00F0E6FF18
:1009740001F092F9254B1B6800221A6000F0C2FABC
:1009840000F076FA72B600BF97ED030A00F0AAFBF6
:100994001E4B1B681B68002B0CBF01230023DBB21A
:1009A4001A46194B1A7062B600BF62B600BF15E052
:1009B400164B1B681B68002B14BF01230023DBB2FA
:1009C4001A46104B1A700F4B1B78DBB2002B05D064
:1009D4000F4B1B680E4A23F0010313600A4B1B786C
:1009E400DBB2002BE4D100F07DFA00F0EBFA72B632
:1009F40000BF002318461037BD4680BDCDCCCC3D8A
:100A04000000A842CF000020D00000206439000874
:100A140010E000E080B483B000AF0346FB7197F9A7
:100A24000730002B0BDBFB7903F01F02074997F912
:100A340007305B09012000FA02F241F8232000BFCD
:100A44000C37BD465DF8047B704700BF00E100E051
:100A540080B483B000AF0346FB7197F90730002BD5
:100A640012DBFB7903F01F020A4997F907305B098F
:100A7400012000FA02F2203341F82320BFF34F8F04
:100A840000BFBFF36F8F00BF00BF0C37BD465DF8DA
:100A9400047B704700E100E080B483B000AF78606D
:100AA400074B1A687B6813407A689A420CBF01238B
:100AB4000023DBB218460C37BD465DF8047B704753
:100AC400003C014080B483B000AF7860074B5A69A2
:100AD4007B6813407A689A420CBF01230023DBB27F
:100AE40018460C37BD465DF8047B7047003C014056
:100AF40080B483B000AF7860044A7B68536100BF60
:100B04000C37BD465DF8047B704700BF003C0140D4
:100B140080B483B000AF786039607B683A689A61CA
:100B240000BF0C37BD465DF8047B704780B483B0CA
:100B340000AF786039603B681A047B689A6100BF33
:100B44000C37BD465DF8047B7047000080B483B069
:100B540000AF78600C4B5B79002B0CBF01230023A2
:100B6400DAB27B6801331A70074B9B79002B0CBFF8
:100B740001230023DAB27B6802331A7000BF0C37FA
:100B8400BD465DF8047B70472001002080B400AFAF
:100B9400174B5B79002B0CBF01230023DAB2144BF3
:100BA400DA71134B9B79002B0CBF01230023DAB2BB
:100BB4000F4B1A720E4B5A790132D2B25A710C4B46
:100BC4005B79042B02D90A4B00225A71084B9A799B
:100BD4000132D2B29A71064B9B79092B02D9044B8C
:100BE40000229A7100BFBD465DF8047B704700BFC8
:100BF40020010020B0B588B000AFFFF7C7FF484B15
:100C04001B6A1846FFF72EFC464BD3E90E23FFF769
:100C1400F3FC0346002B07D0414B1B6A002B03DB7C
:100C2400404BD3E90A2303E04FF000024FF00003E6
:100C3400C7E906233A4B1B6A1846FFF713FC044620
:100C44000D46384BD3E90C014FF00002364BFFF749
:100C5400BBFA02460B4620462946FFF7E1FC034651
:100C6400002B03D02E4B00221A6204E02C4B1B6A8B
:100C740001332B4A13622D4BD3E90423C7E9022322
:100C84002B4BDB79002B05D0254BD3E904232749D3
:100C9400C1E90023264B1B7A002B05D0204BD3E956
:100CA40006232249C1E90223D7E90201FFF7CCFC5C
:100CB4000346002B0DD0012B05D11C4BD3E9002397
:100CC400C7E9062306E0194BD3E90223C7E9062343
:100CD40000E000BF174B7B604FF000024FF00003B1
:100CE400D7E90601FFF77EFC0346002B02D120233F
:100CF4007B6101E000237B617B6919467868FFF71B
:100D040007FF7B69DB4303F0200319467868FFF78C
:100D14000DFFFFF72CFD00BF2037BD46B0BD00BF5F
:100D2400F0000020000000200000F03FD800002068
:100D34002001002000000240B0B582B000AF224B79
:100D44005B6A1846FFF78EFB204BD3E91A23FFF7A3
:100D540053FC0346002B07D01B4B5B6A002B03DBC1
:100D64001A4BD3E9162303E04FF000024FF00003BF
:100D7400C7E90023144B5B6A1846FFF773FB04466C
:100D84000D46124BD3E918014FF00002104BFFF748
:100D94001BFA02460B4620462946FFF741FC034650
:100DA400002B03D0084B00225A6204E0064B5B6A16
:100DB4000133054A53620449D7E90023C1E90423F6
:100DC40000BF0837BD46B0BDF00000200000002081
:100DD4000000F03FB0B582B000AF224B9B6A1846CA
:100DE400FFF740FB204BD3E92223FFF705FC034622
:100DF400002B07D01B4B9B6A002B03DB1A4BD3E958
:100E04001E2303E04FF000024FF00003C7E9002364
:100E1400144B9B6A1846FFF725FB04460D46124BFC
:100E2400D3E920014FF00002104BFFF7CDF9024641
:100E34000B4620462946FFF7F3FB0346002B03D05D
:100E4400084B00229A6204E0064B9B6A0133054A70
:100E540093620449D7E90023C1E9062300BF083798
:100E6400BD46B0BDF0000020000000200000F03FAF
:100E740080B500AF184BD3E912231849C1E9002308
:100E8400154BD3E914231549C1E90223124BD3E9C5
:100E940012231349C1E904230F4BD3E91423104946
:100EA400C1E906230C4B93F899200D4B83F82C20B1
:100EB400094BD3E908230949C1E90423084B00225B
:100EC4001A70074B01225A60FFF746FC044B0122BB
:100ED4001A7200BF80BD00BF00000020D8000020AF
:100EE400F000002080B400AF054B1B78002B02D12A
:100EF400034B01221A7000BFBD465DF8047B7047A6
:100F0400F000002080B500AF022204493720FFF72B
:100F14005FFC2820FFF77EFD00BF80BD250F000881
:100F240080B500AF4FF40050FFF7B6FD0346002B29
:100F340008D04FF40050FFF7C5FD0346002B01D045
:100F4400012300E00023002B2BD04FF40050FFF7C7
:100F5400CFFD184B1B78DBB2012B22D1164B93F833
:100F64002C30164ADB001344D3E900231449C1E9A9
:100F74000423114B93F82C20104B93F89A3013440C
:100F8400DAB20D4B83F82C200B4B93F82C200B4B2F
:100F94001B7E9A4205D9094B93F89820064B83F897
:100FA4002C20BFF36F8F00BFBFF34F8F00BF00BF74
:100FB40080BD00BFD0000020F00000200000002011
:100FC400D800002080B500AF2820FFF741FD00BF06
:100FD40080BD000080B400AF00BFBD465DF8047B57
:100FE400704700BF80B483B000AF03463960FB7123
:100FF40097F90730002B0ADB3B68DAB20C4997F902
:1010040007301201D2B20B4483F800230AE03B6894
:10101400DAB20849FB7903F00F03043B1201D2B2A0
:101024000B441A7600BF0C37BD465DF8047B70474D
:1010340000E100E000ED00E080B582B000AF786030
:101044007B68013BB3F1807F01D301230FE00A4A9F
:101054007B68013B53600F214FF0FF30FFF7C2FF65
:10106400054B00229A60044B07221A60002318469D
:101074000837BD4680BD00BF10E000E080B500AF7A
:10108400BFF34F8F00BFBFF36F8F00BF0B4B1A68C6
:101094000B4B1B689A4202D3084B00221A60074B81
:1010A4001B685A1C05490A60002B05D172B600BFA3
:1010B400FFF7A2FB62B600BF00BF80BD2C01002079
:1010C4003001002080B400AF054B5B68044A43F054
:1010D4008053536000BFBD465DF8047B704700BF7A
:1010E40000ED00E080B584B000AF87ED010A254B28
:1010F4001B6807EE903AB8EE677AD7ED017A67EE8F
:10110400277AFCEEE77A17EE903AFB60FB68B3F1BE
:10111400807F18D3FB6807EE903AB8EE677ADFED6C
:101124001A6AC7EE267AFCEEE77A17EE903A013394
:10113400164A1360154B1B68FA68B2FBF3F31846A2
:10114400FFF77AFF05E0114B00221A60F868FFF7F9
:1011540073FF0F4B00221A6003214FF0FF30FFF79B
:1011640041FF0C4A0C4B1A600F216FF00400FFF78B
:1011740039FF0F216FF00100FFF734FF00BF103774
:10118400BD4680BDA4000020FFFF7F4B300100203E
:101194002C0100208110000834010020EFF30080AE
:1011A40001B5EFF3118003B41EF0100F08BFB0EEC9
:1011B400400A0A48006803B488B004A006904FF0BF
:1011C400807007906FF006008646704703BC804726
:1011D400BFF36F8F00DFFEE700BF00003401002083
:1011E4001EF0100F08BFB0EE400A1EF0040F0CBF33
:1011F400EFF30880EFF30980816911F8020C10B154
:1012040001280DD00BE01EF0100F0CBF1AB008B06F
:1012140003BC80F3118803BC80F300880847FEE711
:101224004EF61451CEF200010A6842F001020A603F
:101234007047F4E700BF00BF80B400AF054B1B68E4
:10124400044A43F00103136000BFBD465DF8047B0C
:10125400704700BF0038024080B400AF064B1B68E3
:1012640003F00203022B0CBF01230023DBB2184658
:10127400BD465DF8047B70470038024080B483B0FB
:1012840000AF7860074B1B6823F0F8027B68DB0033
:10129400044913430B6000BF0C37BD465DF8047B63
:1012A400704700BF0038024080B483B000AF78605C
:1012B400064B9B6823F0030204497B6813438B604D
:1012C40000BF0C37BD465DF8047B70470038024010
:1012D40080B400AF044B9B6803F00C031846BD4672
:1012E4005DF8047B704700BF0038024080B483B0CF
:1012F40000AF7860064B9B6823F0F00204497B68DA
:1013040013438B6000BF0C37BD465DF8047B704708
:101314000038024080B483B000AF7860064B9B680D
:1013240023F4E05204497B6813438B6000BF0C37FD
:10133400BD465DF8047B70470038024080B483B03A
:1013440000AF7860064B9B6823F4604204497B68D5
:1013540013438B6000BF0C37BD465DF8047B7047B8
:101364000038024080B483B000AF7860074BD3F8F4
:101374008C3023F0807205497B681343C1F88C30AC
:1013840000BF0C37BD465DF8047B7047003802404F
:1013940080B400AF054B1B68044A43F080731360AC
:1013A40000BFBD465DF8047B704700BF00380240B3
:1013B40080B400AF074B1B6803F00073B3F1007FE8
:1013C4000CBF01230023DBB21846BD465DF8047B45
:1013D400704700BF0038024080B485B000AFF860A9
:1013E400B9607A603B60114B5A68114B1340F9683D
:1013F400BA6811437A6892010A430C4913434B605B
:101404000A4B5B6823F4403208493B6813434B6042
:10141400064B5B6823F0E04204493B6813434B608E
:1014240000BF1437BD465DF8047B704700380240A6
:101434000080BFFF80B483B000AF7860064B1B68A8
:1014440023F00F0204497B6813430B6000BF0C3781
:10145400BD465DF8047B7047003C024080B400AF99
:10146400044B1B6803F00F031846BD465DF8047B6C
:10147400704700BF003C024080B400AF054B1B68BE
:10148400044A23F48033136000BFBD465DF8047B37
:10149400704700BF0070004080B483B000AF786034
:1014A400064B1B6823F4404204497B6813430B60DA
:1014B40000BF0C37BD465DF8047B704700700040E8
:1014C40080B500AF0220FFF7B5FF00BFFFF7C6FFEE
:1014D4000346022BFAD14FF48040FFF7DDFFFFF7FC
:1014E400CBFF1020FFF7CAFEFFF7A6FE00BFFFF7F1
:1014F400B3FE0346012BFAD14FF480334FF4A872A4
:1015040010210020FFF768FFFFF742FF00BFFFF73D
:101514004FFF0346012BFAD10020FFF7E7FE4FF4FB
:101524008050FFF7F7FE0020FFF708FF0220FFF7C7
:10153400BBFE00BFFFF7CCFE0346082BFAD10848D8
:1015440001F0B2FD002000F07BFC0346002B01D02B
:1015540000F01AF80020FFF705FF00BF80BD00BFB0
:1015640000BD010580B582B000AF78607B681B6860
:10157400044A934201D102F015F800BF0837BD4672
:1015840080BD00BF000C004080B400AF72B600BF45
:1015940000BFFDE780B485B000AF7860084B1A6BDC
:1015A40007497B6813430B63054B1A6B7B68134035
:1015B400FB60FB6800BF1437BD465DF8047B7047D1
:1015C4000038024080B487B000AF78603960174AB1
:1015D4003B68DBB2023352F823203B681B0CDB432D
:1015E40002EA03013B681B0C3B613B6993FAA3F3DA
:1015F400FB60FB687B617B69002B01D1202303E046
:101604007B69B3FA83F3DBB21A467B6803FA02F20E
:1016140006483B68DBB20A43023340F8232000BF8C
:101624001C37BD465DF8047B704700BF003801409D
:1016340080B48BB000AFF860B9607A60FB681A6858
:10164400BB687B617B6993FAA3F33B613B69BB6134
:10165400BB69002B01D1202303E0BB69B3FA83F3F8
:10166400DBB25B00032101FA03F3DB431A40BB68DE
:101674003B623B6A93FAA3F3FB61FB697B627B6A7F
:10168400002B01D1202303E07B6AB3FA83F3DBB29E
:101694005B00796801FA03F31A43FB681A6000BF20
:1016A4002C37BD465DF8047B704780B48BB000AF27
:1016B400F860B9607A60FB68DA68BB687B617B6953
:1016C40093FAA3F33B613B69BB61BB69002B01D176
:1016D400202303E0BB69B3FA83F3DBB25B0003218D
:1016E40001FA03F3DB431A40BB683B623B6A93FA9B
:1016F400A3F3FB61FB697B627B6A002B01D120238E
:1017040003E07B6AB3FA83F3DBB25B00796801FA26
:1017140003F31A43FB68DA6000BF2C37BD465DF85B
:10172400047B704780B483B000AF786039603B6855
:101734001A047B689A6100BF0C37BD465DF8047BD0
:101744007047000080B588B000AF07F1180300228D
:101754001A605A603B4600221A605A609A60DA6046
:101764001A615A610420FFF715FF8020FFF712FF6A
:101774000120FFF70FFF0220FFF70CFF4FF49071D9
:101784001A48FFF7CFFF1A490220FFF71BFF4FF457
:101794000053BB6101233B7700237B770223BB7794
:1017A40007F11803184601F027FD00224FF40051F9
:1017B4001048FFF77AFF00224FF400510D48FFF75D
:1017C40037FF4FF490733B6001237B600023BB60C1
:1017D4000023FB6000233B613B461946034800F0AD
:1017E400D4FC00BF2037BD4680BD00BF00000240CE
:1017F4000300F0000008024080B400AF044BDB6833
:101804001B0A03F007031846BD465DF8047B7047C6
:1018140000ED00E080B483B000AF0346FB7197F99C
:101824000730002B0BDBFB7903F01F02074997F904
:1018340007305B09012000FA02F241F8232000BFBF
:101844000C37BD465DF8047B704700BF00E100E043
:1018540080B483B000AF03463960FB7197F9073059
:10186400002B0ADB3B68DAB20C4997F90730120106
:10187400D2B20B4483F800230AE03B68DAB2084989
:10188400FB7903F00F03043B1201D2B20B441A7626
:1018940000BF0C37BD465DF8047B704700E100E0F3
:1018A40000ED00E080B489B000AFF860B9607A6000
:1018B400FB6803F00703FB61FB69C3F10703042B17
:1018C40028BF0423BB61FB690433062B02D9FB69DF
:1018D400033B00E000237B614FF0FF32BB6902FA57
:1018E40003F3DA43BB681A407B699A404FF0FF3137
:1018F4007B6901FA03F3D9437B680B401343184611
:101904002437BD465DF8047B7047000080B485B081
:1019140000AF7860084B1A6B07497B6813430B636D
:10192400054B1A6B7B681340FB60FB6800BF1437E0
:10193400BD465DF8047B70470038024080B500AFB7
:101944004FF40010FFF7E2FFFFF756FF03460022B3
:1019540000211846FFF7A6FF034619461020FFF79B
:1019640077FF1020FFF756FF00BF80BD80B485B01D
:1019740000AFF860B9607A600D4ABB6813441B7805
:101984001A46FB6813441B6823F0C0020849BB686D
:101994000B441B781946FB680B4419467B681343B8
:1019A4000B6000BF1437BD465DF8047B704700BF71
:1019B4006839000880B485B000AFF860B9607A6017
:1019C4000D4ABB6813441B781A46FB6813441B6812
:1019D40023F490720849BB680B441B781946FB68D2
:1019E4000B4419467B6813430B6000BF1437BD4694
:1019F4005DF8047B704700BF6839000880B485B087
:101A040000AFF860B9607A600D4ABB6813441B7874
:101A14001A46FB6813441B6823F400720849BB6828
:101A24000B441B781946FB680B4419467B68134327
:101A34000B6000BF1437BD465DF8047B704700BFE0
:101A44006839000880B485B000AFF860B9607A6086
:101A54000D4ABB6813441B781A46FB6813441B6881
:101A640023F480620849BB680B441B781946FB6861
:101A74000B4419467B6813430B6000BF1437BD4603
:101A84005DF8047B704700BF6839000880B485B0F6
:101A940000AFF860B9607A600D4ABB6813441B78E4
:101AA4001A46FB6813441B6823F4C0520849BB68F8
:101AB4000B441B781946FB680B4419467B68134397
:101AC4000B6000BF1437BD465DF8047B704700BF50
:101AD4006839000880B485B000AFF860B9607A60F6
:101AE4000D4ABB6813441B781A46FB6813441B68F1
:101AF40023F4C0420849BB680B441B781946FB68B1
:101B04000B4419467B6813430B6000BF1437BD4672
:101B14005DF8047B704700BF6839000880B485B065
:101B240000AFF860B9607A600D4ABB6813441B7853
:101B34001A46FB6813441B6823F440320849BB6807
:101B44000B441B781946FB680B4419467B68134306
:101B54000B6000BF1437BD465DF8047B704700BFBF
:101B64006839000880B485B000AFF860B9607A6065
:101B74000D4ABB6813441B781A46FB6813441B6860
:101B840023F060620849BB680B441B781946FB6864
:101B94000B4419467B6813430B6000BF1437BD46E2
:101BA4005DF8047B704700BF6839000880B483B0D7
:101BB40000AF786039600C4A3B6813441B781A46BE
:101BC4007B6813445B6908493A680A4412781146F1
:101BD4007A680A4423F00403536100BF0C37BD46FE
:101BE4005DF8047B704700BF6839000880B485B095
:101BF40000AF7860084B1A6B07497B6813430B638B
:101C0400054B1A6B7B681340FB60FB6800BF1437FD
:101C1400BD465DF8047B70470038024080B485B04F
:101C240000AF7860084B1A6C07497B6813430B6458
:101C3400054B1A6C7B681340FB60FB6800BF1437CC
:101C4400BD465DF8047B70470038024080B483B021
:101C540000AF78607B68DB6843F400527B68DA602D
:101C640000BF0C37BD465DF8047B704780B483B079
:101C740000AF78607B681B6923F490427B681A612B
:101C84007B685B6923F02A027B685A6100BF0C37CA
:101C9400BD465DF8047B704780B58EB000AF07F198
:101CA4001C0300221A605A609A60DA601A615A6151
:101CB4009A613B1D00221A605A609A60DA601A61C8
:101CC4005A614FF40030FFF7A9FF0120FFF78EFFA0
:101CD4000C237B600223BB600323FB6000233B6176
:101CE40000237B610723BB613B1D1946274800F095
:101CF4004CFA4FF0006205212548FFF733FF00221C
:101D040005212348FFF732FE002205212048FFF772
:101D140005FF002205211E48FFF74CFE0022052185
:101D24001B48FFF76BFE4FF4806205211848FFF74C
:101D340089FE002205211648FFF7A8FE002205218E
:101D44001348FFF7C7FE05211148FFF72FFF4FF493
:101D5400E133FB6100233B6200237B620023BB620F
:101D64000C23FB6200233B6300237B6307F11C030A
:101D74001946084800F0A0FF0648FFF777FF05481A
:101D8400FFF764FF00BF3837BD4680BD0000024046
:101D9400006002400044004080B400AF00BFFDE793
:101DA40080B400AF00BFFDE780B400AF00BFFDE723
:101DB40080B400AF00BFFDE780B400AF00BFFDE713
:101DC40080B400AF00BFBD465DF8047B704780B4AB
:101DD40000AF00BFBD465DF8047B704780B500AF1F
:101DE400024800F01DFB00BF80BD00BF3801002089
:101DF40080B582B000AF00237B60104B5B6C0F4A50
:101E040043F4804353640D4B5B6C03F480437B6069
:101E14007B6800233B60094B1B6C084A43F08053EA
:101E24001364064B1B6C03F080533B603B68072034
:101E340001F061FB00BF0837BD4680BD0038024099
:101E440080B58CB000AF78600023FB620023BB62D6
:101E540000227968322001F059FB322001F072FB34
:101E64000023FB601F4B1B6C1E4A43F008031364E2
:101E74001C4B1B6C03F00803FB60FB6807F11002AA
:101E840007F114031146184601F056FA01F040FA1E
:101E940003465B00FB62FB6A134AA2FB03239B0C11
:101EA400013BBB62114B124A1A60104B40F2E732FD
:101EB400DA600E4ABB6A53600C4B00221A610B4B6A
:101EC40000229A60094800F0E1F90346002B04D18E
:101ED400064800F035FA034600E00123184630377F
:101EE400BD4680BD0038024083DE1B43380100201C
:101EF400000C004080B48BB000AFF860B9607A6029
:101F0400FB681A68BB687B617B6993FAA3F33B6146
:101F14003B69BB61BB69002B01D1202303E0BB6992
:101F2400B3FA83F3DBB25B00032101FA03F3DB436F
:101F34001A40BB683B623B6A93FAA3F3FB61FB69FB
:101F44007B627B6A002B01D1202303E07B6AB3FA16
:101F540083F3DBB25B00796801FA03F31A43FB688D
:101F64001A6000BF2C37BD465DF8047B704780B40F
:101F740085B000AFF860B9607A60FB685A68BB68E6
:101F8400DB431A40BB68796801FB03F31A43FB681F
:101F94005A6000BF1437BD465DF8047B704780B4B7
:101FA4008BB000AFF860B9607A60FB689A68BB6870
:101FB4007B617B6993FAA3F33B613B69BB61BB69BA
:101FC400002B01D1202303E0BB69B3FA83F3DBB216
:101FD4005B00032101FA03F3DB431A40BB683B6255
:101FE4003B6A93FAA3F3FB61FB697B627B6A002B78
:101FF40001D1202303E07B6AB3FA83F3DBB25B00F5
:10200400796801FA03F31A43FB689A6000BF2C371E
:10201400BD465DF8047B704780B48BB000AFF860B8
:10202400B9607A60FB68DA68BB687B617B6993FAA4
:10203400A3F33B613B69BB61BB69002B01D1202346
:1020440003E0BB69B3FA83F3DBB25B00032101FA5B
:1020540003F3DB431A40BB683B623B6A93FAA3F386
:10206400FB61FB697B627B6A002B01D1202303E0C7
:102074007B6AB3FA83F3DBB25B00796801FA03F39A
:102084001A43FB68DA6000BF2C37BD465DF8047B59
:10209400704780B48BB000AFF860B9607A60FB68B9
:1020A4001A6ABB687B617B6993FAA3F33B613B6962
:1020B400BB61BB69002B01D1202303E0BB69B3FAE8
:1020C40083F3DBB29B000F2101FA03F3DB431A40D5
:1020D400BB683B623B6A93FAA3F3FB61FB697B62D7
:1020E4007B6A002B01D1202303E07B6AB3FA83F3DC
:1020F400DBB29B00796801FA03F31A43FB681A62A6
:1021040000BF2C37BD465DF8047B704780B48BB0AC
:1021140000AFF860B9607A60FB685A6ABB681B0A52
:102124007B617B6993FAA3F33B613B69BB61BB6948
:10213400002B01D1202303E0BB69B3FA83F3DBB2A4
:102144009B000F2101FA03F3DB431A40BB681B0A0F
:102154003B623B6A93FAA3F3FB61FB697B627B6A94
:10216400002B01D1202303E07B6AB3FA83F3DBB2B3
:102174009B00796801FA03F31A43FB685A6200BFB3
:102184002C37BD465DF8047B704780B58AB000AF3C
:102194007860396000237B6200233B623B681B68E4
:1021A400BB61BB6993FAA3F37B617B69FB61FB6948
:1021B400002B01D1202303E0FB69B3FA83F3DBB2E4
:1021C4007B6257E03B681A6801217B6A01FA03F3DA
:1021D40013403B623B6A002B49D03B685B68012B90
:1021E40003D03B685B68022B0DD13B689B681A46A1
:1021F400396A7868FFF7D3FE3B68DB681A46396AA8
:102204007868FFF7B4FE3B681B691A46396A786838
:10221400FFF702FF3B685B68022B21D13B6AFB603E
:10222400FB6893FAA3F3BB60BB683B613B69002B7B
:1022340001D1202303E03B69B3FA83F3DBB2072B1C
:1022440007D83B685B691A46396A7868FFF721FF4B
:1022540006E03B685B691A46396A7868FFF756FFFF
:102264003B685B681A46396A7868FFF743FE7B6A05
:1022740001337B623B681A687B6A22FA03F3002B02
:10228400A0D1002318462837BD4680BD80B582B052
:1022940000AF78607B68002B01D1012341E07B68AB
:1022A40093F83D30DBB2002B06D17B68002283F823
:1022B4003C20786800F039F87B68022283F83D20DE
:1022C4007B681A687B6804331946104600F0D8F915
:1022D4007B68012283F846207B68012283F83E2034
:1022E4007B68012283F83F207B68012283F8402029
:1022F4007B68012283F841207B68012283F8422015
:102304007B68012283F843207B68012283F8442000
:102314007B68012283F845207B68012283F83D20F5
:10232400002318460837BD4680BD80B483B000AF93
:10233400786000BF0C37BD465DF8047B7047000031
:1023440080B485B000AF78607B6893F83D30DBB231
:10235400012B01D001234EE07B68022283F83D204B
:102364007B681B68DA687B681B6842F00102DA60EC
:102374007B681B68234A934222D07B681B68B3F1B5
:10238400804F1DD07B681B681F4A934218D07B681E
:102394001B681E4A934213D07B681B681C4A9342F5
:1023A4000ED07B681B681B4A934209D07B681B686C
:1023B400194A934204D07B681B68184A934211D18E
:1023C4007B681B689B6803F00703FB60FB68062BB4
:1023D40010D07B681B681A687B681B6842F0010296
:1023E4001A6007E07B681B681A687B681B6842F008
:1023F40001021A60002318461437BD465DF8047BB9
:10240400704700BF00000140000400400008004085
:10241400000C00400004014000400140001800404E
:1024240080B582B000AF78607B681B681B6903F0DD
:102434000203022B22D17B681B68DB6803F00203D2
:10244400022B1BD17B681B686FF002021A617B6848
:1024540001221A777B681B689B6903F00303002B36
:1024640003D0786800F0EEF805E0786800F0E0F852
:10247400786800F0F1F87B6800221A777B681B68A3
:102484001B6903F00403042B22D17B681B68DB68FF
:1024940003F00403042B1BD17B681B686FF0040258
:1024A4001A617B6802221A777B681B689B6903F4B4
:1024B4004073002B03D0786800F0C4F805E0786816
:1024C40000F0B6F8786800F0C7F87B6800221A7745
:1024D4007B681B681B6903F00803082B22D17B6807
:1024E4001B68DB6803F00803082B1BD17B681B689F
:1024F4006FF008021A617B6804221A777B681B68F4
:10250400DB6903F00303002B03D0786800F09AF82A
:1025140005E0786800F08CF8786800F09DF87B6836
:1025240000221A777B681B681B6903F01003102BC9
:1025340022D17B681B68DB6803F01003102B1BD1CE
:102544007B681B686FF010021A617B6808221A7797
:102554007B681B68DB6903F44073002B03D0786845
:1025640000F070F805E0786800F062F8786800F030
:1025740073F87B6800221A777B681B681B6903F079
:102584000103012B0ED17B681B68DB6803F0010398
:10259400012B07D17B681B686FF001021A61786810
:1025A400FEF7E0FF7B681B681B6903F08003802B48
:1025B4000ED17B681B68DB6803F08003802B07D196
:1025C4007B681B686FF080021A61786800F002F97A
:1025D4007B681B681B6903F04003402B0ED17B68AA
:1025E4001B68DB6803F04003402B07D17B681B6842
:1025F4006FF040021A61786800F038F87B681B6855
:102604001B6903F02003202B0ED17B681B68DB6859
:1026140003F02003202B07D17B681B686FF0200296
:102624001A61786800F0CCF800BF0837BD4680BD59
:1026340080B483B000AF786000BF0C37BD465DF84E
:10264400047B704780B483B000AF786000BF0C3760
:10265400BD465DF8047B704780B483B000AF7860FA
:1026640000BF0C37BD465DF8047B704780B483B06F
:1026740000AF786000BF0C37BD465DF8047B70473F
:1026840080B485B000AF786039607B681B68FB60FC
:102694007B68404A934213D07B68B3F1804F0FD0DC
:1026A4007B683D4A93420BD07B683C4A934207D0F7
:1026B4007B683B4A934203D07B683A4A934208D1F1
:1026C400FB6823F07003FB603B685B68FA681343A4
:1026D400FB607B682F4A93422BD07B68B3F1804F19
:1026E40027D07B682C4A934223D07B682B4A9342A1
:1026F4001FD07B682A4A93421BD07B68294A9342A5
:1027040017D07B68284A934213D07B68274A9342A8
:102714000FD07B68264A93420BD07B68254A9342AC
:1027240007D07B68244A934203D07B68234A9342B0
:1027340008D1FB6823F44073FB603B68DB68FA68EC
:102744001343FB60FB6823F080023B685B6913431F
:10275400FB607B68FA681A603B689A687B68DA6297
:102764003B681A687B689A627B680A4A934203D082
:102774007B680C4A934203D13B681A697B681A63ED
:102784007B6801225A6100BF1437BD465DF8047BA3
:10279400704700BF000001400004004000080040F2
:1027A400000C00400004014000400140004401408E
:1027B4000048014000180040001C00400020004078
:1027C40080B483B000AF786000BF0C37BD465DF8BD
:1027D400047B704780B483B000AF786000BF0C37CF
:1027E400BD465DF8047B704780B483B000AF786069
:1027F4007B68DB6803F40053B3F5005F0CBF01236F
:102804000023DBB218460C37BD465DF8047B7047E5
:1028140080B483B000AF786039607B681B6923F4AF
:1028240040523B681A437B681A6100BF0C37BD46AF
:102834005DF8047B704780B483B000AF7860396082
:102844007B685B6923F440723B681A437B685A6176
:1028540000BF0C37BD465DF8047B70472DE9B04FCF
:10286400C0B000AFC7F8FC00C7F8F810C7F8F420F0
:10287400C7F8F030D7F8F430B3F5004F40F00C81CE
:10288400D7F8F8300022C7F8E830C7F8EC20D7E9C9
:102894003A4522462B46911839665B417B66D7E957
:1028A4001823214612EB0108294643EB01094FF096
:1028B40000024FF000034FEAC90343EA58734FEA9A
:1028C400C80290469946234618EB0303C7F8E03044
:1028D4002B4649EB0303C7F8E430D7F8F030002265
:1028E4009A4693461AEB0A03BB654BEB0B03FB6555
:1028F400D7E91623D7E93801FDF7CEFE02460B4689
:10290400644BA3FB02235B099BB21B019CB2D7F867
:10291400F8300022C7F8D830C7F8DC20D7E9368968
:1029240042464B46911839655B417B65D7E91423D0
:1029340041465118B96449464B41FB644FF00002CB
:102944004FF00003D7E912AB5946CB00514643EA96
:1029540051735146CA0010461946034642469B1815
:10296400C7F8D0304B460A4642EB0303C7F8D430CD
:10297400D7F8F0300022C7F8C830C7F8CC20D7E920
:1029840032120B46DB183B64134642EB03037B64B1
:10299400D7E91023D7E93401FDF77EFE02460B4642
:1029A40011463C4BA3FB01235B09642202FB03F3A6
:1029B400CB1ADB0003F13202364BA3FB02235B0983
:1029C4009BB25B009BB203F4F8739BB223449CB2AA
:1029D400D7F8F8300022C7F8C030C7F8C420D7E9C8
:1029E400308942464B469118B9635B41FB63D7E992
:1029F4000E2341465118396349464B417B634FF0DE
:102A040000024FF00003D7E90CAB5946CB00514606
:102A140043EA51735146CA001046194603464246DA
:102A24009B18C7F8B8304B460A4642EB0303C7F875
:102A3400BC30D7F8F0300022C7F8B030C7F8B42063
:102A4400D7E92C120B46DB18BB62134642EB030397
:102A5400FB62D7E90A23D7E92E01FDF71DFE0246E2
:102A64000B460C4BA3FB02135B09642101FB03F32C
:102A7400D31ADB003233074AA2FB03235B099BB260
:102A840003F007039BB223449BB21A46D7F8FC30E9
:102A94009A6008E11F85EB51D7F8F8300022C7F897
:102AA400A830C7F8AC20D7E92A8942464B4691188A
:102AB40039625B417B62D7E9082341465418494691
:102AC40043EB01054FF000024FF00003EB0043EA33
:102AD4005473E20014461D464346E318C7F8A03079
:102AE4004B4645EB0303C7F8A430D7F8F030002277
:102AF400C7F89830C7F89C204FF000024FF000034D
:102B0400D7E9264529468B00214643EA917321469D
:102B14008A00D7E92801FDF7BFFD02460B46654B45
:102B2400A3FB02235B099BB21B019CB2D7F8F830CC
:102B34000022C7F89030C7F89420D7E92489424688
:102B44004B469118B9615B41FB61D7E906234146C5
:102B54005118396149464B417B614FF000024FF0F7
:102B64000003D7E904AB5946CB00514643EA5173FD
:102B74005146CA0010461946034642469B18C7F8F8
:102B840088304B460A4642EB0303C7F88C30D7F82B
:102B9400F0300022C7F88030C7F884204FF00002DC
:102BA4004FF00003D7E9208949468B00414643EAA8
:102BB400917341468A00D7E92201FDF76DFD024673
:102BC4000B4611463B4BA3FB01235B09642202FB2A
:102BD40003F3CB1A1B013233364AA2FB03235B09EE
:102BE4009BB203F0F0039BB223449CB2D7F8F830B5
:102BF4000022BB67FA67D7E91E8942464B46911803
:102C0400B9605B41FB60D7E9022341465118396042
:102C140049464B417B604FF000024FF00003D7E977
:102C240000AB5946CB00514643EA51735146CA00A2
:102C340010461946034642469B183B674B460A46D4
:102C440042EB03037B67D7F8F0300022BB66FA66D9
:102C54004FF000024FF00003D7E91A8949468B0070
:102C6400414643EA917341468A00D7E91C01FDF7C6
:102C740013FD02460B460F4BA3FB02135B096421B1
:102C840001FB03F3D31A1B0132330A4AA2FB0323C9
:102C94005B099BB203F00F039BB223449BB21A4619
:102CA400D7F8FC309A6000BF07F58077BD46BDE8D1
:102CB400B08F00BF1F85EB5180B588B000AF78603E
:102CC40039600123FB770023BB617868FFF78CFD33
:102CD4000346002B5ED17B68DB6823F4164323F0A4
:102CE4000C033A6851683A68D26811433A68126929
:102CF40011433A6892690A431A437B68DA603B6875
:102D04009B6819467868FFF783FD3B685B69194641
:102D14007868FFF790FD07F10803184600F0CAF839
:102D24007B681F4A934202D17B69BB6121E07B68C7
:102D34001C4A934202D13B69BB611AE07B681A4A80
:102D4400934202D13B69BB6113E07B68174A93420B
:102D540002D17B69BB610CE07B68154A934202D1C6
:102D64003B69BB6105E07B68124A934201D13B6930
:102D7400BB61BB69002B0DD03B681B68002B09D0DD
:102D84000023FB773B689A693B681B68B9697868DC
:102D9400FFF764FDFB7F18462037BD4680BD00BFAA
:102DA400001001400044004000480040001401406D
:102DB400004C00400050004080B400AF044B9B68BE
:102DC40003F00C031846BD465DF8047B704700BF52
:102DD4000038024080B400AF044B9B6803F0F0035A
:102DE4001846BD465DF8047B704700BF00380240BA
:102DF40080B400AF044B9B6803F4E0531846BD460F
:102E04005DF8047B704700BF0038024080B400AF17
:102E1400044B9B6803F460431846BD465DF8047B8D
:102E2400704700BF0038024080B400AF044B5B68B9
:102E340003F480031846BD465DF8047B704700BF69
:102E44000038024080B400AF044B5B689B09C3F3B5
:102E540008031846BD465DF8047B704700380240FD
:102E640080B400AF044B5B6803F440331846BD469E
:102E74005DF8047B704700BF0038024080B400AFA7
:102E8400044B5B6803F0E0431846BD465DF8047BE1
:102E9400704700BF0038024080B400AF044B5B6849
:102EA40003F03F031846BD465DF8047B704700BF3E
:102EB4000038024080B582B000AF786000F020F89E
:102EC40002467B681A607B681B68184600F05CF851
:102ED40002467B685A607B685B68184600F06AF8B3
:102EE40002467B689A607B685B68184600F076F857
:102EF40002467B68DA6000BF0837BD4680BD00002B
:102F040080B582B000AF00237B60FFF755FF034616
:102F14000C2B2DD801A252F823F000BF552F000826
:102F2400752F0008752F0008752F00085B2F000807
:102F3400752F0008752F0008752F0008612F0008F1
:102F4400752F0008752F0008752F00086B2F0008D7
:102F54000B4B7B600FE00B4B7B600CE0082000F018
:102F640051F8786007E00C2000F04CF8786002E03B
:102F7400034B7B6000BF7B6818460837BD4680BDA5
:102F84000024F40000127A0080B582B000AF7860AB
:102F9400FFF720FF03461B0903F00F03044AD35C29
:102FA4001A467B68D34018460837BD4680BD00BF2B
:102FB4007039000880B582B000AF7860FFF718FF61
:102FC40003469B0A044AD35C1A467B68D3401846DE
:102FD4000837BD4680BD00BF8039000880B582B087
:102FE40000AF7860FFF712FF03465B0B044AD35C23
:102FF4001A467B68D34018460837BD4680BD00BFDB
:103004008039000890B587B000AF786000237B61F9
:103014000023FB6000233B61FFF706FFF860FB68B9
:10302400002B04D0FB68B3F5800F03D005E01C4BE4
:103034007B6105E01B4B7B6102E0194B7B6100BFA8
:103044007B68082B14D1FFF727FF02467B69B3FB8B
:10305400F2F4FFF7F7FE034603FB04F4FFF700FF67
:1030640003461B0C01335B00B4FBF3F33B6111E03B
:10307400FFF712FF02467B69B3FBF2F4FFF7E2FEAF
:10308400034603FB04F4FFF7F9FE03461B0FB4FBEE
:10309400F3F33B613B6918461C37BD4690BD00BF46
:1030A4000024F40000127A0080B483B000AF78608A
:1030B400044A7B68136000BF0C37BD465DF8047B8F
:1030C400704700BFA400002080B483B000AF7860D4
:1030D400054B1A6804497B6813430B6000BF0C3727
:1030E400BD465DF8047B7047003C014080B483B06A
:1030F40000AF7860064B1A687B68DB4304491340D1
:103104000B6000BF0C37BD465DF8047B704700BF01
:10311400003C014080B483B000AF7860054B5A682E
:1031240004497B6813434B6000BF0C37BD465DF810
:10313400047B7047003C014080B483B000AF7860EA
:10314400064B5A687B68DB43044913404B6000BF5D
:103154000C37BD465DF8047B704700BF003C01405E
:1031640080B483B000AF7860054B9A6804497B68EB
:1031740013438B6000BF0C37BD465DF8047B70477A
:10318400003C014080B483B000AF7860064B9A687D
:103194007B68DB43044913408B6000BF0C37BD469A
:1031A4005DF8047B704700BF003C014080B483B0ED
:1031B40000AF7860054BDA6804497B681343CB6041
:1031C40000BF0C37BD465DF8047B7047003C0140EE
:1031D40080B483B000AF7860064BDA687B68DB4369
:1031E40004491340CB6000BF0C37BD465DF8047B37
:1031F400704700BF003C014080B584B000AF7860E8
:103204000023FB737B681B79002B65D07B681B68EC
:10321400002B6BD07B685B79022B1CD0022B25DC46
:10322400002B02D0012B0BD020E07B681B681846D2
:10323400FFF782FF7B681B681846FFF745FF18E01D
:103244007B681B681846FFF751FF7B681B681846AC
:10325400FFF760FF0DE07B681B681846FFF734FF3B
:103264007B681B681846FFF755FF02E00123FB73D8
:1032740000BF7B689B79002B38D07B689B79032B3C
:103284001CD0032B25DC012B02D0022B0BD020E019
:103294007B681B681846FFF79BFF7B681B68184612
:1032A400FFF75EFF22E07B681B681846FFF76AFFA2
:1032B4007B681B681846FFF779FF17E07B681B687B
:1032C4001846FFF74DFF7B681B681846FFF76EFF33
:1032D4000CE00123FB7309E07B681B681846FFF7C9
:1032E40005FF7B681B681846FFF726FFFB7B184623
:1032F4001037BD4680BD000080B400AF034B1B688F
:103304001846BD465DF8047B704700BFA40000204A
:1033140080B500AFFFF7F0FF0246054B9B689B0AA0
:1033240003F007030349CB5C22FA03F3184680BD7C
:10333400003802408039000880B483B000AF786060
:1033440039607B680F221A60124B9B6803F00302FA
:103354007B685A600F4B9B6803F0F0027B689A60AD
:103364000C4B9B6803F4E0527B68DA60094B9B6862
:10337400DB0803F4E0527B681A61074B1B6803F017
:103384000F023B681A6000BF0C37BD465DF8047B32
:10339400704700BF00380240003C024080B485B052
:1033A40000AF78607B6803F00703FB600C4BDB68BD
:1033B400BB60BA684FF6FF031340BB60FB681A0298
:1033C400BB68134343F0BF6343F40033BB60044A58
:1033D400BB68D36000BF1437BD465DF8047B7047FB
:1033E40000ED00E080B400AF044BDB681B0A03F07F
:1033F40007031846BD465DF8047B704700ED00E006
:1034040080B483B000AF0346FB7197F90730002BFB
:103414000BDBFB7903F01F02074997F907305B09BF
:10342400012000FA02F241F8232000BF0C37BD4608
:103434005DF8047B704700BF00E100E080B483B016
:1034440000AF03463960FB7197F90730002B0ADBA4
:103454003B68DAB20C4997F907301201D2B20B4437
:1034640083F800230AE03B68DAB20849FB7903F0E9
:103474000F03043B1201D2B20B441A7600BF0C377F
:10348400BD465DF8047B704700E100E000ED00E01C
:1034940080B489B000AFF860B9607A60FB6803F06B
:1034A4000703FB61FB69C3F10703042B28BF042353
:1034B400BB61FB690433062B02D9FB69033B00E0C3
:1034C40000237B614FF0FF32BB6902FA03F3DA4356
:1034D400BB681A407B699A404FF0FF317B6901FA5F
:1034E40003F3D9437B680B40134318462437BD4686
:1034F4005DF8047B704780B582B000AF786078686F
:10350400FFF74CFF00BF0837BD4680BD80B586B0CD
:1035140000AF0346B9607A60FB7300237B61FFF759
:1035240061FF78617A68B9687869FFF7B1FF02468C
:1035340097F90F3011461846FFF780FF00BF183780
:10354400BD4680BD80B582B000AF0346FB7197F9DC
:1035540007301846FFF754FF00BF0837BD4680BD4B
:1035640080B500AF0E4B1B680D4A43F40073136023
:103574000B4B1B680A4A43F480631360084B1B68B7
:10358400074A43F4807313600320FFF7B4FF00205D
:10359400FEF756FCFEF72CFC0023184680BD00BF46
:1035A400003C024080B400AF064B1B781A46064B21
:1035B4001B681344044A136000BFBD465DF8047BD6
:1035C400704700BFA00000208001002080B400AF3D
:1035D400064BD3F88830054A43F47003C2F88830A8
:1035E40000BFBD465DF8047B704700BF00ED00E0FE
:1035F400DFF834D00D480E490E4A002302E0D458B7
:10360400C4500433C4188C42F9D30B4A0B4C002326
:1036140001E013600432A242FBD3FFF7D7FF00F0AE
:103624006FF9FDF78BF970470000022000000020BD
:10363400A800002098390008A80000208401002078
:10364400FEE700002DE9F047089D0E4604460F46AC
:10365400002B4AD194468C45B2FA82F260D942B129
:10366400C2F12003974020FA03F30CFA02FC1F4333
:1036740094404FEA1C4E1FFA8CF6B7FBFEF1230C64
:103684000EFB117743EA074301FB06F098420AD97F
:103694001CEB030301F1FF3780F01581984240F2DF
:1036A4001281023963441B1AA4B2B3FBFEF00EFB71
:1036B400103344EA034400FB06F6A6420AD91CEB85
:1036C400040400F1FF3380F00081A64240F2FD8043
:1036D4006444023840EA0140A41B00211DB1D440D7
:1036E4000023C5E90043BDE8F0878B4205D90DB13D
:1036F400C5E9000100210846F5E7B3FA83F1002982
:1037040046D1B34202D3824200F2F580841A66EBBA
:10371400030201201746002DE5D0C5E90047E2E782
:10372400002A40F09380A1EB0C034FEA1C471FFAD8
:103734008CFE0121B3FBF7F607FB1630230C43EA9A
:1037440000430EFB06F0984208D91CEB030306F174
:10375400FF3802D2984200F2D08046461B1AA4B227
:10376400B3FBF7F007FB103344EA03440EFB00FEFF
:10377400A64508D91CEB040400F1FF3302D2A64588
:1037840000F2B6801846A4EB0E0440EA0640A5E712
:10379400C1F120078B4022FA07FC4CEA030C06FA1D
:1037A40001FE20FA07F426FA07F344EA0E0400FAAD
:1037B40001F84FEA1C404FEA1449B3FBF0FE1FFA2C
:1037C4008CF600FB1E3349EA03430EFB06F99945C8
:1037D40002FA01F20BD91CEB03030EF1FF3A80F05D
:1037E4008580994540F28280AEF1020E6344A3EBDA
:1037F4000909A4B2B9FBF0F300FB139944EA0944A4
:1038040003FB06F6A64208D91CEB040403F1FF30BF
:1038140068D2A64266D9023B644443EA0E40A41B24
:10382400A0FB02E6B4427346B14652D34FD05DB119
:10383400B8EB030264EB090404FA07F722FA01F374
:103844001F43CC40C5E9007400214CE7C2F12001BC
:1038540020FA01F30CFA02FC26FA01F196403343F4
:103864004FEA1C471FFA8CFEB1FBF7F007FB10165A
:10387400190C41EA064100FB0EF68E4204FA02F4EA
:1038840008D91CEB010100F1FF382DD28E422BD94F
:1038940002386144891B9BB2B1FBF7F607FB161192
:1038A40043EA014306FB0EF1994208D91CEB0303DA
:1038B40006F1FF3814D2994212D9023E63445B1ACE
:1038C40046EA004136E73946EDE6184602E7F04598
:1038D400ADD2BEEB020366EB0C060138B146A6E797
:1038E4004646ECE7034698E74046D3E7D6467EE7EC
:1038F4006444023847E708460DE7023E63442DE777
:1039040070B50D4D0D4C641BA4100026A64209D1C0
:103914000B4D0C4C00F018F8641BA4100026A642B2
:1039240005D170BD55F8043B98470136EEE755F8CC
:10393400043B98470136F2E79039000890390008B3
:103944009039000894390008F8B500BFF8BC08BCE9
:103954009E467047F8B500BFF8BC08BC9E46704749
:1039640020010020102840587088A0B800000000F2
:10397400000000000102030406070809000000001B
:043984000102030435
:08398800C0FCFF7F01000000FC
:0439900039070008EB
:04399400110700080F
:10399800000000000000F03F0000000000000040B0
:1039A800000000000000000002000000000000000D
:1039B8000000000000000000000000000000F03FD0
:1039C8000000000000000040000000000000F03F80
:1039D80000000000000000000000000000000000DF
:1039E8000000000000000000000000000000F03FA0
:1039F8000000000000000040000000000000F03F50
:103A08000000000000000000000000000000F03F7F
:103A18000000000000000040000000000000F03F2F
:103A2800000000000000000000000100000000008D
:083A3800010000000024F4006D
:04000005080035F5C5
:00000001FF
